:100000000C946F030C948C030C948C030C948C0351
:100010000C948C030C948C030C948C030C948C0324
:100020000C948C030C948C030C94D71A0C94191A0E
:100030000C94F61C0C948C030C948C030C948C0381
:100040000C948C030C948C030C948C030C948C03F4
:100050000C948C030C94A91C0C948C030C948C03AE
:100060000C948C030C948C030C948C030C948C03D4
:100070000C948C030C948C030C948C030C948C03C4
:100080000C948C030C948C030C948C030C948C03B4
:100090000C948C030C948C030C948C030C948C03A4
:1000A0000C948C030C948C030C948C03BF08C20832
:1000B000EB08F808FE080909BA09BA09BA09BA0929
:1000C000BA090C090E091309370958095B095E09B9
:1000D0008109A009AB09990E990ECC0ECC0E3F0FE9
:1000E0005D0F6B106B10680FDC0FED0FED0F31180B
:1000F0005818011A5818011AA418C718011ABC195F
:10010000CC1900DA0281FFD9F1DB20A4A62EAF00C2
:10011000A0C000A1C800AED580A81FD300408D1498
:10012000200000E0E0E0E0E0E0E0E0E0E0E0C0C08F
:1001300000000000E0E0E0E0E0E0E0E0E0E0E0E03F
:10014000000000FFFFFFFF010101010103FFFFFFAE
:10015000FF00000001010101FFFFFFFF010101019C
:10016000000000FFFFFFFF8080808080C0FFFFFF56
:10017000FF00000080808080FFFFFFFF8080808084
:1001800000000007C7C7E7E7E7E7E7E7E7E7C3C31C
:1001900000000000C7C7E7E7E7E7E7E7E7E7C7C70B
:1001A0000000007FFFFFFFE3C1C1C1C1C3CF8F8F3C
:1001B0000F0000FFFFFFFF030101010103FFFFFF2D
:1001C000FF0000F0F1F1F3C383838383C7FFFFFFD8
:1001D000FE0000FFFFFFFFC080808080C0FFFFFFA8
:1001E000FF0000E0E3E3E7E7E7E7E7E7E7E7C3C3AC
:1001F000000000E0E3E3E7E7E7E7E7E7E7E7C3C39B
:10020000000000FFFFFFFFC1C1C1C1C1E3FFFFFF4D
:100210007F0000FFFFFFFF010101010103FFFFFF5E
:10022000FF0000FFFFFFFF030303031FFFFFFFE1CA
:10023000000000FFFFFFFF8080808080C0FFFFFF85
:10024000FF0000E7E7E7E7E0E0E0E0E0E0E7E7E71E
:10025000E70000E7E7E7E7E7E7E7E7E7E7E7C3C344
:10026000000000FFFFFFFFC1C1C1C1C1C101010109
:10027000010000FFFFFFFFC1C1C1C1C1E3FFFFFFDC
:100280007F0000FFFFFFFF83838383838380808061
:10029000800000FFFFFFFF030303031FFFFFFFE1D9
:1002A00000000007C7C7E7E7E7E7E7E7E7E7C7C7F3
:1002B00007000007C7C7E7E0E0E0E0E0E0E7C7C706
:1002C0000700000F0F0F0FC3C1C1C1C1E3FFFF7FC4
:1002D0003F0000FFFFFFFF030101010103FFFFFFDC
:1002E000FF0000F0F0F0F0C383838383C7FFFFFEBD
:1002F000FC0000FFFFFFFFC080808080C0FFFFFF89
:10030000FF000000030307070707070707070303AA
:100310000000000003030707070707070707030399
:1003200000000000000000000000000000000000CD
:1003300000000000000000000000000000000000BD
:100340000000000000007E0F00D4FFFFFFC7000088
:10035000007800000000000000002A2B28000000A8
:100360000000000000000000000000000029000064
:1003700000002C1E3420212224342627252E362D41
:100380003738271E1F202122232425263333362EDB
:1003900037381F0405060708090A0B0C0D0E0F104D
:1003A0001112131415161718191A1B1C1D2F313092
:1003B000232D350405060708090A0B0C0D0E0F1036
:1003C0001112131415161718191A1B1C1D2F313072
:1003D000354C05010902A10185020901A1000509A9
:1003E00019012908150025019508750181020501EB
:1003F000093009311581257F950275088106093874
:100400001581257F950175088106050C0A380215AE
:1004100081257F950175088106C0C005010980A16D
:1004200001850319012AB700150126B7009501754A
:10043000108100C0050C0901A101850419012AA041
:1004400002150126A002950175108100C005010961
:1004500006A1018506050719E029E7150025019584
:1004600008750181020507190029EF15002501957E
:10047000F07501810205081901290595057501919D
:1004800002950175039101C00660FF0961A1010990
:1004900062150026FF00952075088102096315008A
:1004A00026FF00952075089102C005010906A101EB
:1004B000050719E029E71500250195087501810256
:1004C0009501750881010507190029FF150026FF10
:1004D000009506750881000508190129059505751F
:1004E000019102950175039101C009025B000301AE
:1004F00000A0FA0904000001030101000921110113
:1005000000012240000705810308000109040100E1
:100510000203000000092111010001222200070549
:1005200082032000010705030320000109040200E3
:10053000010300000009211101000122B600070596
:1005400084032000011201000200000008424C0553
:100550007000010102000116034400690073006F7E
:100560000072006400650072003300300000001467
:10057000034C00420020007800200046004D004B54
:1005800000430000000403090400AF00AEA900AA64
:100590000001000100010001000100010029001E0E
:1005A000001F0020002100220023005F0060006186
:1005B000002B0014001A0008001500170028005C2A
:1005C000005D005E00E10004001600070009000A5B
:1005D00000520059005A005B00E000E20000002CCD
:1005E000000151500051004F0062006300005C01A7
:1005F00000010001000100010001000100010001F3
:1006000000010001000100010001000100010001E2
:1006100000010001000100010001000100010001D2
:1006200000010001000100010001000100000001C3
:1006300000010001000100010001000100010001B2
:1006400000010001000100010001000100010001A2
:100650000001000100010001000100010001000192
:100660000001000100010001000100010001000182
:100670000001000100010001000100010000000173
:100680000001000100010001000100010001000162
:100690000001000100010001000100010001000152
:1006A0000001000100010001000100010001000142
:1006B0000001000100010001000100010001000132
:1006C0000001000100010001000100010000000123
:1006D00000010001000100010001000100001124DF
:1006E0001FBECFEFDAE0DEBFCDBF11E0A0E0B1E08A
:1006F000ECECF9E402C005900D92AA37B107D9F7E6
:1007000024E0AAE7B1E001C01D92AC3AB207E1F7DC
:100710000E948E030C94E4240C940000A2E4B0E048
:10072000E4E9F3E00C943D2485B7806885BF85B784
:10073000806885BF84B7877F84BF0FB6F894A8957B
:1007400080916000886180936000109260000FBE0D
:1007500090E080E80FB6F894809361009093610078
:100760000FBE86E990E190937B0180937A010E940D
:100770005D1A0E947C1A8091E20084608093E200FE
:100780007894809169048823A1F01091E9001F708A
:100790009091EC00892F817090FD80E8182B1092C9
:1007A000E9008091E80083FD0E944E171F701093AE
:1007B000E90082E084BD93E095BD9AEF97BD8093F8
:1007C0006E000E94BF1F811102C00E94AF1F04E192
:1007D00011E038E1E32E31E0F32ED8018D918D0147
:1007E0008F3F11F00E94DB10E016F106B1F708E12F
:1007F00011E0F80181918F018F3F11F00E94DB1011
:10080000F1E002321F07A9F788E0EBEBF3E0DF012C
:10081000282F1D922A95E9F7ECE7F1E0DF011D9200
:100820008A95E9F780E090E00E947C24883E9E4F04
:1008300021F40E94BF1F811102C00E949F1282E01A
:1008400090E00E947424809386010E948E129093FF
:100850009604809395040E94AC15EFEFF6E721E033
:10086000E150F0402040E1F700C000000E94AC15CC
:100870008091BB0380FF08C06FEF7FEF80E090E0C6
:100880000E94A0240E94981C83E090E00E9474249F
:100890000E94072283E08093B60380E28093930155
:1008A0000E9435236DE070E085E191E00E942717FA
:1008B000892B09F043C08091B60363E070E081FDAD
:1008C0003AC082E191E00E942717892BB9F56DE0CB
:1008D00070E082E091E00E942717892B79F50E9451
:1008E000DE1CDC01CB01805A9541AF4FBF4F809396
:1008F000810490938204A0938304B0938404E6EB74
:10090000F1E080E092E0DF019C011D922150304037
:10091000E1F7F0939501E09394018FEF9FEF9093AF
:10092000B9038093B80381E08093860480938504A3
:100930001092B70303C08FE091E0C5CF81E08093B0
:10094000910153985B9A54985C9A8FE891E00197D3
:10095000F1F700C0000030919101E2E9F1E020E000
:10096000231769F089B183FB882780F94C9B02C06B
:1009700092E001C090E0892B81932F5FF1CF80E05E
:1009800091E090938D0480938C0444244394512CE3
:10099000DE0111963D0180916904853009F04AC05D
:1009A00090E4F92E00E112E180916904853009F0AC
:1009B0003DC080916904843029F10E944B1F109240
:1009C0009004E8E1F0E00FB6F894A895E093600099
:1009D0000FBEF092600083B7817F846083BF83B7CE
:1009E000816083BF7894889583B78E7F83BF0FB66D
:1009F000F894A895809160008861809360001092BF
:100A000060000FBE80916804882309F4CDCF0E9456
:100A1000AC15EBEBF3E081919191892B09F0D2C4F5
:100A200023EC33E02E173F07B1F7BECF0E944322DD
:100A30000E94A81D0E94AC1507E811E08BEB882EE0
:100A400083E0982E4FE851E0D401F80121913191D3
:100A50008D919D914E175F0721F028173907B1F34B
:100A600023C02817390701F50E94EA1C8C018091E8
:100A70008401909185010817190709F4B9C48FEF13
:100A80008DAB8EAB1FAA0E94EA1C8160782F99AFB4
:100A900088AF4DA95EA96FA989AD0E94230A109362
:100AA000850100938401A4C4312CD401AD90BD9084
:100AB0004D01F801C080D180CA24DB24C114D104C7
:100AC00041F1212CEE24E394F12CC7018C219D21CE
:100AD000892BB1F02AAE3BAE21E0C7018A219B21D0
:100AE000892B09F420E02CAF0E94EA1C8160782F4A
:100AF0009EAF8DAF4AAD5BAD6CAD8EAD0E94230A4B
:100B00002394EE0CFF1CFAE02F12DFCFD801AD9238
:100B1000BC9233940E5F1F4FB4E03B12C6CF0E94CD
:100B2000DE1CCC24C394B12CD12CEDEFAE2E992435
:100B30009394FCEF8F2E80919101B81608F0A5C018
:100B40000B2D10E0E9B1E3FBEE27E0F94C9B02C06E
:100B500092E001C090E08E2F892BD801AE56BE4F97
:100B6000EC912E2F237030E0482F082E000C550BEF
:100B70002417350709F487C0EE0FEE0FE82BEC932E
:100B8000EF70F0E0EE5DFE4F980120573E4F790187
:100B90009081D9018C91890F8C93843094F1F80164
:100BA000E157FE4F80818F5F80830E94EA1CBBA6C5
:100BB0008CA69DA68160782F9FA78EA74B2D5CEFFA
:100BC00061E08FA50E94230AEFE3FFE13197F1F77F
:100BD00000C000000E94EA1CB8AA89AA1AAA816073
:100BE000782F9CAB8BAB4B2D5CEF60E08CA90E9407
:100BF000230A8FE39FE10197F1F700C0000021E095
:100C000001C020E0D7018C918D3F8CF5F801E157B0
:100C1000FE4F8081815080830E94EA1CB9A2AAA263
:100C20009BA28160782F9DA38CA34B2D5DEF61E08B
:100C30008DA10E94230AEFE3FFE13197F1F700C095
:100C400000000E94EA1CBEA2AFA218A68160782F05
:100C50009AA789A74B2D5DEF60E08AA50E94230A21
:100C60008FE39FE10197F1F700C0000021E0D70179
:100C70008C91082E000C990B64E070E00E94B62461
:100C8000F7018083D22AB39456CFD1100E94DE1C84
:100C900080918604882309F432C186EB91E0909319
:100CA0009501809394012091B8033091B903DC0140
:100CB00080E090E0FC01EE5DFE4FE4914C91E41782
:100CC00079F0EC93AC0175E0569547957A95E1F78C
:100CD000B20102C0660F771F4A95E2F7262B372B29
:100CE00001961196811572E0970721F73093B903A9
:100CF0002093B8032115310509F4E6C08091B703AC
:100D00008111E2C0082F10E07201082E02C0EE0C23
:100D1000FF1C0A94E2F7A70142235323452B11F449
:100D20008F5FF0CF9091B603980165E0220F331FDB
:100D30006A95E1F790FD12C08295880F80768093C6
:100D40000E01220F232F221F330B31952093110107
:100D5000815E80930F011092120112C045E036951A
:100D600027954A95E1F7220F220F220F20930E01BB
:100D700010921101295F20930F0183E080931201EB
:100D800024E630E047E050E06CE071E088E70E9444
:100D9000DD23892B09F098C08091B60380FD22C025
:100DA000A80195E0440F551F9A95E1F74A545E4F0C
:100DB00004E610E020E230E060E488E70E94FE23D1
:100DC000892B09F081C00E94651FE094F094809106
:100DD000B8039091B903E822F922F092B903E092A6
:100DE000B80372C080E2E6E9F1E0DF011D928A9566
:100DF000E9F7180185E0220C331C8A95E1F7E6E358
:100E0000F1E02396FFAFEEAF239742E351E0239644
:100E1000AEADBFAD23978D912396BFAFAEAF2397F5
:100E2000FA019191AF019101290F311DB9016A5465
:100E30007E4F21967FAF6EAF219790E08A569E4FEE
:100E4000FC0107E09F01281B390BA42C01C0AA0C50
:100E50002A95EAF721966EAD7FAD2197B12CDB0183
:100E60001D91BD011A21202F2B192770922E022EC1
:100E7000000C330BB12F01C0BB0F9A94EAF79B2EE5
:100E80003195219531092770332701C016952A9590
:100E9000EAF7912A1081912A9082B39428E0B21245
:100EA000DECF015031960F3F69F623966EAD7FADD0
:100EB00023976A53714009F0AACF04E610E020E2BC
:100EC00030E046E951E078CF809185048823B9F07D
:100ED0000E94DE1C00918104109182042091830401
:100EE00030918404DC01CB01801B910BA20BB30B6E
:100EF0008F3F9F4FAF4FBF4710F40E944B1FC11051
:100F000001C0D1100E94651F86E0EBE7F4E0D30139
:100F100001900D928A95E1F710927D0410927E0463
:100F200010927F04109280048B81811104C08C8107
:100F3000882309F453C08091790490917A040E9427
:100F4000CF1C9C0190917504992309F45CC2253152
:100F5000310508F443C09F3F19F09F5F90937504DB
:100F60001B81112361F00E949B20111614F491E063
:100F700001C09FEF899F802D112480937D041C81E7
:100F8000112361F00E949B20111614F491E001C01E
:100F90009FEF899F802D112480937E0430917D04E2
:100FA0003323E1F020917E042223C1F045EB34038A
:100FB000C0011124992319F090937D0403C081E0AE
:100FC00080937D0465EB2603C0011124992319F059
:100FD00090937E0403C081E080937E048D81811113
:100FE00004C08E81882309F453C0809177049091C6
:100FF00078040E94CF1C9C0190917404992309F4F9
:1010000007C22135310508F443C09F3F19F09F5FA7
:10101000909374041D81112361F00E9479201116B0
:1010200014F491E001C09FEF899F802D11248093DB
:101030007F041E81112361F00E947920111614F49F
:1010400091E001C09FEF899F802D1124809380043F
:1010500030917F043323E1F0209180042223C1F0FA
:1010600075EB3703C0011124992319F090937F0485
:1010700003C081E080937F0435EB2303C00111247A
:10108000992319F09093800403C081E08093800439
:1010900046E050E0B3018BE794E00E94D724892B0F
:1010A000A9F480917D0481110FC080917E0481118B
:1010B0000BC080917F04811107C081E09091800472
:1010C000911103C080E001C081E080FD0E94D81F23
:1010D00086E0F301ABE7B4E001900D928A95E1F769
:1010E0000E94A81D9091BA03891721F08093BA033A
:1010F0000E94DE1C80916904843009F04CCC83E0AE
:101100008093E9008091E80082FF45CC8091E8005F
:1011100085FF1FC00E94AE1B811119C000E210E0C4
:10112000730108C08091F100D7018D937D010150BA
:10113000110969F08091E80085FDF4CF8091E80005
:101140008B778093E8000E94AE1B882399F391E08F
:1011500001C090E08091E8008B778093E8009923AC
:1011600009F419CCE9818E2F90E0FC013197E5312B
:10117000F10508F0FFC0EA5AFF4F0C94CA241A8206
:101180008AE04FC08A81823009F434C1833051F043
:10119000813009F0EFC00E94DE1C9B838C837D832D
:1011A0006E83EAC08091BB039091BC039B838C83C8
:1011B0008091BD039091BE039D838E838091BF0378
:1011C0009091C0039F8388878091C1039091C2034F
:1011D00099878A87D1C08A81823009F0CBC06B8120
:1011E0007C818D819E810E94D0240E948B1FC4C06F
:1011F0004C816B818A810E94011FABC02D813E8191
:101200003227232732274C816B818A810E948F1ECF
:10121000B3C00E94B61EB0C080E14EC082E08A8397
:1012200089E88B83A9C00A811B8110270127102719
:10123000CC80D12C7301C80189589E4F9701261983
:1012400037092C153D0508F097C00938B2E01B0797
:1012500028F40E947424F701848303C0D7011496F4
:101260001C920F5F1F4FBFEFEB1AFB0AE4CF0A81FE
:101270001B81102701271027CC80D12C7301C801B6
:1012800089589E4F9701261937092C153D0508F0FE
:1012900073C00938E2E01E0728F4D70114966C9158
:1012A0000E9482240F5F1F4FBFEFEB1AFB0AE7CFAC
:1012B0000E941E1E61C084E08A835EC00A811B8179
:1012C000102701271027CC80D12C7301C8018796E5
:1012D0009701261937092C153D0508F04DC000343B
:1012E000E1E01E0730F40E947424D70114968C9319
:1012F00002C0F70114820F5F1F4FFFEFEF1AFF0AC2
:10130000E5CF0A811B81102701271027CC80D12C23
:101310007301C80187969701261937092C153D05D9
:1013200058F5003421E0120728F4D70114966C9187
:101330000E9482240F5F1F4FBFEFEB1AFB0AE9CF19
:1013400041E08C81811101C040E06B818A810E9463
:101350005B1E9D8356C02D813E8132272327322775
:1013600041E08C81811101C040E06B818A810E9443
:101370002E1E02C08FEF898380916904843009F0AA
:101380000ACB1091E9001F709091EC00892F8170B9
:1013900090FD80E8182B82E08093E9008091E800BE
:1013A00080FF0CC040E050E060E270E0C3010E94AA
:1013B000E11B8091E8008E778093E8001F70109306
:1013C000E900E9CA09BD19BD09B400FEFDCF80914D
:1013D000D8008F7D8093D8008091E0008260809358
:1013E000E0008091E00081FDFCCF0E944322DCCA36
:1013F000C12C99CB86E290E00E9474241B821C824F
:101400001D828E83B9CF2B30310508F0A6CDE6CDF5
:101410002B30310508F0FBCD3BCE0E9443222FEF4D
:1014200084E39CE0215080409040E1F700C0000040
:101430009AE088E10FB6F894A895809360000FBEFB
:1014400090936000FFCFA7E1B0E0E9E2FAE00C94EE
:101450004C244B8B5C8B6D8B7E8B8F8B6111109230
:101460003D0486E09E01235F3F4FD901E82F1D9286
:10147000EA95E9F795E0FE017396D90101900D9286
:101480009A95E1F79C894E895F897B897D879E8744
:101490006F87598B488BF901DE01179601900D92E9
:1014A0008A95E1F7CE0107960E94251481113EC06E
:1014B00086E0FE013796DE01119601900D928A9525
:1014C000E1F7FF81E8856A857B856115710531F05B
:1014D000EF3F31F481E0FF3F19F403C081E001C028
:1014E00080E080FD23C02091EA0330E0C90101962D
:1014F0008770992740911B0450E08417950779F174
:10150000F983EA837D836C8396E0929FD001939F59
:10151000B00D1124A551BC4FFE01319601900D92E2
:101520009A95E1F78093EA030E94A51316E0809153
:101530001B049091EA038917F9F0189FC001112448
:1015400085519C4F0E9425148823B1F080911B0483
:1015500090E001968770992780931B04E8CF0E9442
:1015600043221092EA0310921B04E4EEF3E086E0BB
:10157000DF011D928A95E9F76796E3E00C946824F1
:10158000A9E0B0E0E6ECFAE00C943E24FC01808196
:10159000918123813481232B31F09F3F31F491E0FD
:1015A0008F3F19F403C091E001C090E090FDBAC5EF
:1015B0007F0185E0DE01119601900D928A95E1F799
:1015C000F701228189819A81222349F00E94872193
:1015D000182F682F89819A810E94CF2103C00E9411
:1015E000B621182F69817A81812F0E942F1F8C01CB
:1015F000F7018281882309F4F5C0980122513F4503
:101600002031310508F00AC18FEF93E00E94742465
:101610008111F2C0025137E7832E9924939400235D
:1016200079F08114F4E09F0609F4E6C0C4010E9439
:101630007424811101C001502FEF821A920AEFCF5A
:101640001E821F8218861986442443942AE0322E73
:1016500084010F5F1F4FC4010E9474248E831F8278
:10166000882309F4C9C09FEF980F933060F48F83EB
:101670004E8232E0830E911CC8010E947424888738
:10168000811102C0B9C048018E010A5F1F4FF801E5
:1016900020812223E9F2213009F04CC08181813080
:1016A00049F46801F2E0CF0ED11CF80182810E945A
:1016B00016230AC0823051F46801F2E0CF0ED11C2B
:1016C000F80182810E949F22860189C0833049F4FB
:1016D0006801F2E0CF0ED11CF80182810E946A22DB
:1016E000F3CF843019F00F5F1F4F79C0F8012281CA
:1016F0000E5F1F4F80E090E030E0205331092A3028
:10170000310568F4389EA001399E500D1124C9019D
:10171000840F951F0F5F1F4FF8012081EDCF0097B9
:1017200009F45DC0EFE9FFE03197F1F700C0000078
:101730000197F5CFE22FF0E0EE5AFC4F5490822F44
:1017400086958695869590E0FC01EE5BFC4F649053
:101750002770712C022E02C0759467940A94E2F7E8
:10176000F1E06F227724FC01EE5CFC4FA490B12CD9
:10177000022E02C0B594A7940A94E2F731E0A322A6
:10178000BB24FC01EE5DFC4FC490D12C02C0D5946B
:10179000C7942A95E2F781E0C822DD246114710420
:1017A00019F081EE0E949F22A114B10419F086EE77
:1017B0000E949F22852D0E941623A114B10419F0C6
:1017C00086EE0E946A226114710419F081EE0E9473
:1017D0006A22C114D10419F08CE20E9416230F5F13
:1017E0001F4F55CF00313FE5130709F092C481E048
:1017F0000E94EE210E941B1780911C04877009F43F
:1018000091C4F7018281882309F48CC480919604E5
:1018100082FF88C482E00E946C1384C40031FFE51B
:101820001F0711F481E005C001312FE5120721F4F3
:1018300082E00E94FB21DECF033FFCE51F0799F405
:1018400006E221EE40EE63EF7CE509C0073DECE5E2
:101850001E0711F506E221EE41EE67ED7CE5C701BA
:101860000E94B51DC9CF043F2CE5120708F098C1AE
:10187000083D3CE5130731F407E225EE45EE68ED3F
:101880007CE5EDCF093D9CE5190701F708E221E071
:1018900045EE69ED7CE5E3CF882309F4B6C11092EB
:1018A000890403309DE5190758F40A3FECE51E074B
:1018B000C0F4C80182509C45449708F090C111C003
:1018C000053AFDE51F0769F030F401363DE51307E1
:1018D00009F085C106C0C8018D5A9D45039708F0DF
:1018E0007EC10E948E1290939604809395040231DB
:1018F0008CE5180709F40CC108F04DC00930ECE57F
:101900001E0709F4D9C008F505302CE5120709F4C3
:10191000C0C080F403308CE5180709F4B1C008F0AA
:10192000B5C00230ECE51E0709F02AC1809195048C
:101930008160A9C00730FCE51F0709F4B5C008F0B5
:10194000B7C08091950480619EC00D303CE51307BF
:1019500009F4C8C058F40B309CE5190709F4B6C067
:1019600008F0BCC0809195048860ACC00F30FCE5E5
:101970001F0709F4C5C008F4B8C000313CE51307DF
:1019800009F4C2C001318CE5180709F0F9C0809153
:1019900095048F7B78C00F3F9CE5190709F4C3C0FD
:1019A00098F50A3FFCE51F0709F477C0C0F404313D
:1019B0003CE5130709F4C6C008F4B0C005319CE546
:1019C000190709F0DDC08091950482FB222720F9D8
:1019D00091E0922790FB82F990FB83F954C00C3F71
:1019E000ECE51E0709F485C008F45AC00D3F2CE54C
:1019F000120709F481C00E3F3CE5130709F0C0C08F
:101A000080919604826060C001368DE5180709F464
:101A1000ABC070F40130EDE51E0709F49FC008F477
:101A200087C002302DE5120709F0AAC060E097C018
:101A30000D3A3DE5130701F160F4053A9DE51907FC
:101A400009F09EC080919504982F909590FB80F9A5
:101A50001AC00E3AEDE51E07E9F10F3AFDE51F0742
:101A600009F08EC08091960483FB222720F991E033
:101A7000922790FB83F982C08091960488607EC093
:101A8000809195048260809395047AC0809195043A
:101A900019C0809195048860F6CF8091960414C097
:101AA0008091960482606AC0809195048062EBCF39
:101AB000809195048064E7CF0E9443228091950431
:101AC0008068E1CF8460DFCF816058C08091950449
:101AD0008E7FD9CF80919604877F50C080919504E6
:101AE0008D7FD1CF809195041CC080919504877F14
:101AF000CACF809196041AC0809196048D7F3EC013
:101B0000809195048F7EBFCF809195048F7DBBCF50
:101B10000E944322809195048F77B5CF80919504E0
:101B2000877F8B7FB0CF809196048D7F8E7F26C07C
:101B300080919604982F909591708E7F892B90FBC1
:101B400081F91CC00E9443228091950487FB2227C3
:101B500020F991E0922790FB87F995CF61E08EE024
:101B600090E00E9482240CC08091950484FB22277F
:101B700020F991E0922790FB84F985CF8093960419
:101B8000609195041091960484E090E00E94822474
:101B9000612F82E290E00E9482240E9443222CCE98
:101BA000053FFCE51F0731F406E221EE42EE65EF4A
:101BB0007CE555CE053F2CE5120730F407E225EE13
:101BC00044EE64EF7CE54BCE063F3CE5130709F09D
:101BD00063CE07E225EE46EE66EF7CE540CE0631A9
:101BE0008CE5180721F580913E048A7A91E009F48A
:101BF00090E09093C303882311F065E301C069E28C
:101C000084EC93E00E94471D0FC00631ECE51E07EF
:101C100009F042C08091C303882309F481C265E3BF
:101C200084EC93E00E941F1D0E941713E5CD0A3536
:101C30002DE5120761F150F401158CE5180779F0D4
:101C40000E3D1C4549F50E949F1217C00C35EDE56D
:101C50001E07A9F0F0F0073A1D4579F01DC00E945B
:101C600043223FEF84E39CE0315080409040E1F715
:101C700000C000000E94981CBFCD0E940D0A8091F8
:101C8000960482FB882780F991E0892703C081E0D0
:101C900001C080E00E948913F701828100811181D7
:101CA000882349F0C8010E948721D82E682FC801D7
:101CB0000E94CF2104C0C8010E94B621D82EB801CD
:101CC0008D2D0E942F1F0E94F210B82E192F982ED2
:101CD000F7010281A580A2949FE0A92280911C04B3
:101CE0008770B9F00023A9F0812F807F803421F024
:101CF00080E28B0D883068F08091960482FF09C0E5
:101D000082E00E946C1380911C048770DD24D394C0
:101D10008111D12CC12EC2948FE0C8228C2D90E06D
:101D20008C30910508F0D7C1FC01E559FF4F0C94A8
:101D3000CA24812F807F1F70882311F01295107F95
:101D40000023B9F0112309F4B4C180E28B0D88306F
:101D500010F0911006C080913E04182B10933E04A1
:101D600005C080913D04182B10933D040E94171369
:101D7000A0C18B2D0E946A22112309F4ACC180E21C
:101D80008B0D883080F1992071F1109580913D0480
:101D9000182310933D042AC0812F807F1F7080324A
:101DA00011F01295107F8B2D992021F0F1E09F16F4
:101DB000D9F149C08091960482FD1BC0002369F0CF
:101DC000112339F080913E04182B10933E040E9499
:101DD000171380E00E949F227EC180E00E946A2249
:101DE000112309F478C1812F0E9410130E94171348
:101DF00072C1002381F080913F04AA2051F021E0BC
:101E0000A21207C0182B181709F465C110933F04DC
:101E100062C1812B10C0AA2021F031E0A31609F481
:101E20005AC10E940A1327C0002341F085E08A1599
:101E300008F451C1812F0E9460224DC194E09A158F
:101E400008F449C118C0002349F0AA2099F3F7010A
:101E5000858180FF2EC18F708583ECCFAA2059F039
:101E6000893309F035C1FFEF27EE33E0F150204010
:101E70003040E1F72BC1812F0E9459222CC1812FC4
:101E800086958695837019F0813061F024C1002316
:101E900021F08B2D912F937002C080E090E00E9482
:101EA000921D1FC1002321F08B2D912F937002C032
:101EB00080E090E00E947C1D14C18B2D002319F05E
:101EC0000E94BB2002C00E9402200E94D81F09C1AC
:101ED000812F8370A9F5011102C14B2D42954695C2
:101EE0004770440F440F8B2D8F7090E09C01042E9F
:101EF00001C0220F0A94EAF7B4FE08C08FE090E018
:101F000001C0880F4A95EAF7809501C080E01695D8
:101F100016951370123069F088F4909140041130D6
:101F200019F0822B892302C0922B892B0E94072251
:101F3000D6C0822B909140048927F8CF822BF6CF10
:101F4000002319F0812F817001C08695882309F440
:101F5000C6C04B2D429546954770440F440F8B2DBC
:101F60008F7090E09C01042E01C0220F0A94EAF7C2
:101F7000B4FE08C08FE090E001C0880F4A95EAF7F0
:101F8000809501C080E0169516951370123059F0B7
:101F900078F490917304113019F0822B892309C0D1
:101FA000922B892B06C0822B90917304892701C044
:101FB000822B0E94E92193C01F70002339F0812FEA
:101FC0000E94FB218B2D0E94602289C08B2D0E94D4
:101FD0005922812F0E94EE2182C08B2D92EF9916FB
:101FE00081F1991538F0E0EF9E1659F0F1EF9F1648
:101FF00019F15BC023EF921659F134EF9316C1F03B
:1020000054C0002381F084E08A1508F464C01F7175
:1020100081E090E0012E01C0880F0A94EAF79091C8
:102020007304892720C095E09A1508F454C0EFCFB7
:102030008091960482FD1AC0002329F0812F8F71B0
:1020400027C00023D9F3812F8F710E94EE2143C056
:10205000002341F01F7181E0012E01C0880F0A9416
:10206000EAF701C080E00E94E92135C0002399F021
:102070001F71812F0E94FB218091960482FF07C06F
:10208000E8E01E9FC0011124836080931C04812F0F
:102090000E94FB2120C081E00E946C13F1E0FA1540
:1020A000D0F482E00E946C1316C0002321F0AA2015
:1020B00029F28B2D8FCEAA2031F2893349F42FEFEC
:1020C00037EE83E0215030408040E1F700C000004F
:1020D0008B2D0E946A2288EF8C0D843010F40E94B0
:1020E000A81DDD20F9F080911C0480FD1BC0F701C4
:1020F00012828595859585950E94FB21C7010E94D6
:10210000C00A80911C048595859585950E94EE21D5
:1021100009C001319FE5190709F08ECB82E068CB39
:1021200069E27ECD2996E1E10C945A2480E008957D
:102130009091950492FF0DC0282F2871283019F432
:10214000877F846006C0282F2471243011F48B7F90
:10215000886093FF0DC0282F2871283119F4877EDD
:10216000846106C0282F2471243111F48B7E88618C
:102170002091960420FF0DC0382F3871383019F4A3
:10218000877F816006C0382F3171313011F48E7F26
:10219000886021FF0DC0282F2871283119F4877E0F
:1021A000816106C0282F2171213111F48E7E886152
:1021B00094FD877E0895F894E82FE295EF70F0E0A3
:1021C00031A1282F2F7081E090E001C0880F2A955F
:1021D000EAF7982F9095932391A392A1892B82A33C
:1021E00078940895CF93DF938238910569F1B0F424
:1021F0008133910509F477C048F48932910509F4D7
:1022000069C08A32910509F473C092C08533910583
:1022100009F45BC089339105B9F08AC0833E91050A
:1022200091F138F4803E9105D1F0823E910531F173
:102230007FC0863E9105D9F1873E9105E9F1843E44
:10224000910509F075C028C02091950420FD5BC060
:1022500021FD59C02091960423FD61C069C0809181
:10226000950480FD4AC08091960480FF4CC0809107
:10227000950484FD4EC183EE90E04DC1809195049C
:1022800082FF3EC0F4CF8091950482FD39C08091D9
:10229000960480FD38C0EBCF8091960481FF39C051
:1022A0008091950484FD35C187EE90E034C1809122
:1022B000950483FF2BC0F4CF8091950483FD26C045
:1022C0008091960481FD25C0EBCF8091950485FD1A
:1022D00026C022C08091950485FD1EC08091960481
:1022E00083FF1DC00AC08091950486FD1BC01DC0E0
:1022F0008091950486FD19C015C089E390E00BC15B
:1023000082EE90E008C180EE90E005C186EE90E09C
:1023100002C184EE90E0FFC085E390E0FCC089E25A
:1023200090E0F9C08AE290E0F6C081E390E0F3C06B
:10233000811531E5930708F061C0811520E592070A
:10234000B0F09C012370332741E050E002C0440FFD
:10235000551F2A95E2F7282F2695269580E2289F7B
:1023600090011124CA01822B932B9D68D4C0883E12
:10237000910568F5803E910508F0CDC0883A910539
:10238000B8F4853A910548F0855AE82FF0E0E65C0C
:10239000FE4F808190E09064BEC08130910509F4C9
:1023A000B5C008F4B6C08430910508F4B2C0B3C01B
:1023B0008F3B910508F0ADC0885AE82FF0E0EE0F92
:1023C000FF1FE35CFE4F808191819464A4C081155E
:1023D00030E2930758F4811521E0920708F09BC082
:1023E000803F910508F495C0906595C0811530E453
:1023F000930708F48EC09F70906A8DC0811525E503
:10240000920708F042C0811534E5930728F0982F11
:102410008827846F906A7FC0811523E59207B0F00A
:102420009C012370332741E050E002C0440F551F48
:102430002A95E2F7282F2695269580E2289F90017D
:102440001124CA01822B932B9A6865C0811532E54D
:10245000930728F4982F8827816F906A5CC09C01AD
:102460002370332741E050E002C0440F551F2A95E6
:10247000E2F7282F2695269580E2289F90011124C7
:10248000CA01822B932B9C6846C0EC01C11589E5DB
:10249000D807B0F4C11528E5D20728F09C2F88276B
:1024A000806F906A38C0C11536E5D30790F58C2F40
:1024B0000E9498108F7190E0982F882790622BC00F
:1024C000C1158AE5D80790F48C2F8F700E94981060
:1024D00094E0D695C7959A95E1F7CF70D0E0DC2FC0
:1024E000CC27D0699E01282BC90115C0CE0190567A
:1024F0008115904270F48D2F8F710E949810282FB3
:102500002F71CE0199279062922B05C081E090E057
:1025100002C080E090E0DF91CF910895CF9384E0F6
:1025200090E00E947424C82F82E290E00E947424FC
:102530002C2F30E0A901582BCA01CF91089568EEE5
:102540007EEF80E090E00E94A02460E082E090E0D6
:102550000E94822460E083E090E00E948224109236
:10256000400460E084E090E00E94822464E082E223
:1025700090E00E94822460E085E090E00E94822446
:1025800060E086E090E00E9482246FEF87E090E0B8
:102590000E94822440E050E0BA0188E090E00E946E
:1025A000942460E08DE090E00E94822440E050E0BE
:1025B000BA0188E190E00E94942460E087E190E015
:1025C0000E94822440E050E0BA018CE190E00E9439
:1025D000942460E070E080E290E00E94A02440E05B
:1025E00050E0BA0188E190E00E94942480E00E94CB
:1025F000901F0E94AF1F40E050E0BA018FE090E0D2
:102600000E94942440E050E0BA0183E190E00E94EF
:102610009424089580913F04811110923F040895FD
:10262000809590913E04892380933E040895909173
:102630003E0480913D04982B9093C40380913F0405
:102640008823D9F0892B8093C403809113018823B8
:1026500031F08091950487FF02C08EE101C086E0D1
:10266000E6ECF3E090E0815028F021912223D9F3A9
:102670009F5FF9CF91110E940A1340E250E06DE193
:1026800074E084EC93E00E94D724892B21F180E24E
:10269000E4ECF3E0ADE1B4E001900D928A95E1F74E
:1026A000E0918C04F0918D043097A9F08091130192
:1026B000882359F08091950487FF07C08091C40357
:1026C0008093C50386E08093C4030280F381E02DEC
:1026D00084EC93E00995089520911C048095822351
:1026E00080931C04982F977099F430E0482F082E9F
:1026F000000C550B2417350759F09091960492FF62
:1027000007C08595859585950E94EE2110921C0441
:102710000895CF93C0919604C2FB992790F998171A
:1027200091F080FBC2F9C09396046091950484E017
:1027300090E00E9482246C2F82E290E00E9482242A
:1027400082E00E946C13CF91089580911B049091B8
:10275000EA03891719F08F5F8770FBCF08950F93F5
:102760001F93CF93DF938091E90382958F7009F0D7
:102770005AC08091E603882309F455C080911B0458
:102780001091EA036091E4037091E503C091E703BF
:10279000D091E80391E06F3F09F090E0292F06E027
:1027A000811709F440C0209721F07F3F21F030E0ED
:1027B00003C031E001C0322F90E030FD31C0089FEE
:1027C000F001099FF00D1124DF01A551BC4F1196B6
:1027D0003C911197371324C03C91361321C01296B7
:1027E0003C91129731111CC013964D915C91149736
:1027F0004C1B5D0B483C510598F48091E9038F70A8
:1028000080618093E903E051FC4F80818F7080618B
:10281000808384EE93E00E94C00A0E94A51303C047
:1028200001968770BDCFDF91CF911F910F910895D1
:10283000CF93DF93EC010E948721BE010E942F1FDE
:102840000E94F210DF91CF910895A1E1B0E0EBE298
:10285000F4E10C9444248C0185E0F801DE011D961E
:1028600001900D928A95E1F7F801E2809091E403DE
:102870006091E5034091E7035091E803411551054C
:1028800031F06F3F31F481E09F3F19F403C081E0E4
:1028900001C080E0F82FF1709F2E80FD1BC1F80170
:1028A00030812181C380D48084EEA82E83E0B82EAD
:1028B000F090E603F601E41BF50BFF2009F4C7C016
:1028C0008091E903E83CF10508F092C0482F407F71
:1028D00009F051C0621311C093130FC0FE2CE11018
:1028E0000CC08F7080618093E903C5010E94C00A0B
:1028F0008091E903F80185832AC1C114D10431F024
:102900002F3F31F481E03F3F19F403C081E001C063
:1029100080E080FD03C081E08E2502C080E090E071
:10292000F82FF170FF2E80FF1CC080911B04409196
:10293000EA0356E0841709F4E8C090E0589FF001DC
:10294000599FF00D1124E551FC4F6181261306C0FB
:102950006081631303C06281E61203C00196877031
:10296000E9CFFE2CEE2009F4F2C08091E9038160EA
:102970008093E90349C0621306C0931304C0E110B9
:1029800002C0F80186C0C8010E940C22882351F1C0
:10299000EE2041F12091E903822F82958F7090E023
:1029A000029774F08091E4039091E50398878F83F8
:1029B0001986DB86CA862C87CE0107960E94C00A3C
:1029C00086E0F801A4EEB3E001900D928A95E1F75C
:1029D0000E94AF130AC06217C9F0C8010E940C22FE
:1029E00081111EC0C8010E94C00AFF24F394AFC029
:1029F000482F407F81F784EE93E00E94C00A86E072
:102A0000F50111928A95E9F7F12CA1C09313E5CF56
:102A1000E110E3CFF8018583C8010E94C00A54C0C9
:102A2000EE2001F32091E903822F82958F7090E0D0
:102A3000029734F28091E4039091E5039A838983AD
:102A40001B82DD82CC822E83CE010196B7CFE83C7B
:102A5000F105D0F5FE2CEE2029F2621327C0931366
:102A600025C02091E90320FD18C0822F82958F7028
:102A7000482F50E04115510581F0F80125834F3072
:102A8000510541F08F5F982F9295907F822F8F7024
:102A9000892B8583C8010E94C00A86E0F801A4EE54
:102AA000B3E001900D928A95E1F751C0C8010E94F0
:102AB0000C22811185CF8091E90381608093E90325
:102AC000C8010E94C00A43C086E0F50111928A95B0
:102AD000E9F73DC0EE2009F485CFC8010E940C2221
:102AE000F82E882309F47ECF86E0F801A4EEB3E047
:102AF00001900D928A95E1F78091E4039091E503AE
:102B00000E9418140E94AF1322C03D872E878D8526
:102B10009E850E941814292F22952F70223028F4A8
:102B20009F7039F0811105C00BC0243028F49F70CC
:102B300049F4805E883020F0C8010E94C00A9F2CB2
:102B4000F92C05C0F8019581907F99F7F9CF8F2D69
:102B50006196EBE00C946024A8E0B0E0E2EBF5E1D4
:102B60000C944124AE014F5F5F4F7A0188E0FA0177
:102B700011928A95E9F704E111E06A0198E1692E62
:102B800091E0792E88248394912CF80180818F3FE5
:102B900009F447C0F894E82FE295EF70F0E021A126
:102BA0008F70A40102C0440F551F8A95E2F7CA0135
:102BB000922F982B91A392A18095892382A3789438
:102BC00000C0E8E1F1E021E030E0A12CB12C41911E
:102BD0004F3F89F0A42FA295AF70B0E090968C91F2
:102BE00090E04F7002C0959587954A95E2F780FD79
:102BF00002C0C90102C080E090E0A82AB92A220FD1
:102C0000331F51E0E232F50711F7F80180818F3F61
:102C100011F00E94DB10F0EAFA95F1F7F601B182AB
:102C2000A0820F5F1F4FF2E0CF0ED11C601671061D
:102C300009F0ABCF48E050E0B7018CE791E00E948B
:102C4000D724892B89F088E0F701ACE7B1E0019047
:102C50000D928A95E1F781E0809343040E94EA1C7B
:102C6000909342048093410480914304811102C0F7
:102C700080E020C080914104909142040E94CF1CCA
:102C80000597B0F348E050E06CE771E08BEB93E020
:102C90000E94D724892B59F088E0ECE7F1E0ABEBF8
:102CA000B3E001900D928A95E1F781E001C080E0E8
:102CB000109243042896EEE00C945D2480916B04FE
:102CC00087FF11C08091E80082FD05C080916904F2
:102CD0008111F8CF11C08091E8008B770BC08091F3
:102CE0006904882349F08091E80080FFF8CF809143
:102CF000E8008E778093E8000895982F973068F564
:102D00009093E900981739F07091EC002091ED0054
:102D10005091F00003C0242F762F50E021FD02C017
:102D20009F5FECCF3091EB003E7F3093EB00309112
:102D3000ED003D7F3093ED003091EB00316030933A
:102D4000EB007093EC002093ED005093F000209185
:102D5000EE0027FDE5CF80E008958F708093E900B5
:102D600081E008952091710430917204261737078D
:102D700048F06115710539F42091E8002E77209311
:102D8000E80001C0B901FC0120E06115710579F18D
:102D9000809169048823F1F18530F1F18091E80098
:102DA00083FD3CC08091E80082FD2EC08091E80048
:102DB00080FFEBCF2091F3008091F20090E0922B06
:102DC0006115710551F08830910538F421912093F7
:102DD000F100615071090196F3CF21E0089709F0E5
:102DE00020E08091E8008E778093E800CECF21111B
:102DF000CFCF0AC080916904882361F0853061F0EB
:102E00008091E80083FD0AC08091E80082FFF2CF44
:102E100080E0089582E0089583E0089581E00895B8
:102E20000895BC0184E00E946E1C0895BC0183E0FB
:102E30000E946E1C089580917304982F96709630AE
:102E400011F4886001C0877F0E94E9210895EF9204
:102E5000FF920F931F93CF93DF93EC017B0164E606
:102E600070E088E70E943B238C01EC0EFD1ECE151E
:102E7000DF0561F017FD0AC0FE01849164E670E091
:102E80000E94AE238C012196892B89F30E94252470
:102E9000C801CDB7DEB7E6E00C946524AAE2B0E045
:102EA000E4E5F7E10C944C24EBE6F4E083E794E0EE
:102EB0002091F10021938E179F07D1F780916C0428
:102EC000833009F463C030F4813071F0823009F44A
:102ED0009DC0B4C08A3009F489C08B3009F46EC03B
:102EE000893009F0ABC020C080916B04813A09F0B1
:102EF000A5C08091E800877F8093E80080916F04EF
:102F000090917004892B21F460E287E494E003C07F
:102F100060E080E090E070E00E94B2168091E800EE
:102F20008B778093E8008AC080916B04813209F02E
:102F300085C080916F0490917004009719F00297FA
:102F400009F07CC08091E800877F8093E800809141
:102F5000E80082FD05C0809169048111F8CF6EC040
:102F60002091F3008091F20090E0922B029731F4CF
:102F70008091F100813011F0863021F48091F100D0
:102F8000809346048091E8008B7754C080916B0455
:102F9000813A09F053C080916F0490917004892B9D
:102FA00009F04CC08091E800877F8093E800809111
:102FB000E80080FFFCCF8091130137C080916B0443
:102FC0008132E1F580916F0490917004892BB1F505
:102FD0008091E800877F8093E8000E945E168091D0
:102FE0006D04809313010E94432228C080916B04DA
:102FF000813221F58091E800877F8093E8000E946C
:103000005E1680916E048093450418C080916B0415
:10301000813AA1F48091E800877F8093E800809155
:10302000E80080FFFCCF809145048093F1008091FF
:10303000E8008E778093E8000E945E168091E80099
:1030400083FFDFC180916B0490916C04492F50E0A5
:103050004A30510508F0D5C1FA01E958FF4F0C94E8
:10306000CA24803821F0823809F0CBC108C0809191
:10307000670490916804992389F082600FC0809161
:103080006F048F70873008F0BCC18093E900809195
:10309000EB0085FB882780F91092E9009091E80009
:1030A000977F9093E8008093F1001092F10070C137
:1030B000282F2D7F09F0A5C1882319F0823061F0F7
:1030C000A0C180916D04813009F09BC1933009F05B
:1030D00080E0809368042EC080916D0481112AC025
:1030E00080916F048F702FEF280F263008F089C170
:1030F0008093E9002091EB0020FF1CC0933021F465
:103100008091EB00806214C09091EB0090619093ED
:10311000EB0021E030E0A90102C0440F551F8A9561
:10312000E2F74093EA001092EA008091EB00886099
:103130008093EB001092E9008091E800877F8093F4
:10314000E8000E945E165DC181115BC110916D04A3
:103150001F778091E3008078812B8093E30080913A
:10316000E800877F8093E8000E945E168091E80067
:1031700080FFFCCF8091E30080688093E300111111
:1031800002C082E001C083E0809369043AC18058A4
:10319000823008F036C120916D0430916E042C3DD0
:1031A00053E0350779F583E08A838AE289834FB754
:1031B000F894DE01139620E03EE051E2E32FF0E0C8
:1031C00050935700E49120FF03C0E295EF703F5FFA
:1031D000EF708E2F90E0EA3010F0C79601C0C096D5
:1031E0008D939D932F5F243149F74FBF8091E80065
:1031F000877F8093E8006AE270E0CE0101960E942A
:10320000B216B4C080916F0490917004432F55277B
:1032100043305105A9F068F44130510509F400C16B
:103220004230510509F0EDC08BE590E0EAEEF4E0A4
:103230004BC04132510529F14232510589F1E1C0BB
:10324000C901992781309105A1F058F0029709F042
:10325000D8C0E7E5F5E0E4918E2F90E0E7E5F5E0F2
:1032600030C0E5E8F5E0E4918E2F90E0E5E8F5E088
:1032700028C0EFE6F5E0E4918E2F90E0EFE6F5E070
:1032800020C08330910508F0BCC0880F991FFC0155
:10329000EC58FE4F0190F081E02D89E090E014C0E1
:1032A0008330910508F0ADC0FC01EE0FFF1FE2591D
:1032B000FE4F0190F081E02DDC01A559BE4F8C91AD
:1032C00090E0009709F49DC02091E800277F2093AB
:1032D000E80020917104309172042817390708F42E
:1032E000C90140E0009789F120916904222309F483
:1032F0003DC02530D9F12091E80023FD37C0209151
:10330000E80022FD2FC02091E80020FFEBCF409184
:10331000F3002091F20030E0342B009759F0283070
:10332000310540F444914093F100319601972F5FAD
:103330003F4FF3CF41E02830310509F040E02091C4
:10334000E8002E772093E800CDCF4111CDCF0AC001
:1033500080916904882351F0853041F08091E80024
:1033600083FD04C08091E80082FFF2CF8091E800E5
:103370008B778093E80045C0803809F042C0809187
:10338000E800877F8093E80080916A048093F100D1
:103390008091E8008E77D3CE811133C080916D0487
:1033A00090916E049927029764F58091E800877FD9
:1033B0008093E80010916D0410936A040E945E16D9
:1033C000111106C08091E30087FD02C081E001C0B9
:1033D00084E08093690442E061EC81E00E947D1604
:1033E00042E261EC84E00E947D1642E261EC82E000
:1033F0000E947D1642E260EC83E00E947D1680917F
:1034000069048091E80083FF10C08091E800877F05
:103410008093E8008091EB0080628093EB0005C010
:1034200082E190E0E5E4F5E04FCFAA96E3E00C946A
:1034300068241F920F920FB60F9211242F933F937F
:103440004F935F936F937F938F939F93AF93BF93AC
:10345000CF93DF93EF93FF93C091E900CF708091FA
:10346000EC00D82FD17080FDD0E81092E900809157
:10347000F000877F8093F00078940E944E1710929E
:10348000E9008091F00088608093F000CD2BCF7030
:10349000C093E900FF91EF91DF91CF91BF91AF9180
:1034A0009F918F917F916F915F914F913F912F915C
:1034B0000F900FBE0F901F901895E8EDF0E08081FF
:1034C0008E7F80831092E2001092DA001092E10069
:1034D000A0EEB0E08C9181608C9380818F778083A7
:1034E00019BCA7EDB0E08C918E7F8C9380818F7E8C
:1034F0008083109244040895A0E0B0E0E2E8FAE18D
:103500000C944724C8EDD0E088818F7E8883E7ED56
:10351000F0E080818160808384E082BF81E08093DD
:10352000440488818E7F888302EE10E0F8011082C7
:103530001092DA0081EEC82ED12CF601108288811B
:103540008F77888388818068888388818F7D88834E
:1035500019BC1092690410926A04109268041092C7
:10356000670490EEE92EF12CF70180818B7F808338
:1035700088818160888342E060E080E00E947D165F
:10358000F60180818E7F8083F80180818160808355
:10359000808188608083F70180818E7F808388812D
:1035A00080618883CDB7DEB7E8E00C9463241F9276
:1035B0000F920FB60F9211242F933F934F935F9367
:1035C0006F937F938F939F93AF93BF93EF93FF93EB
:1035D0008091E10082FF09C08091E20082FF05C076
:1035E0008091E1008B7F8093E1008091DA0080FF81
:1035F0002AC08091D80080FF26C08091DA008E7F9B
:103600008093DA008091D90080FF18C080E189BDE5
:1036100082E189BD09B400FEFDCF81E08093690499
:103620008091440481110FC00E945D1A0E947C1A8F
:103630008091E20084608093E20005C019BC109282
:103640006904109244048091E10080FF17C08091CA
:10365000E20080FF13C08091E2008E7F8093E20041
:103660008091E20080618093E2008091D8008062C6
:103670008093D80019BC85E0809369048091E100B3
:1036800084FF30C08091E20084FF2CC080E189BDBE
:1036900082E189BD09B400FEFDCF8091D8008F7D05
:1036A0008093D8008091E1008F7E8093E10080912B
:1036B000E2008F7E8093E2008091E200816080933F
:1036C000E20080916A04882311F084E007C08091B1
:1036D000E30087FD02C081E001C083E080936904BC
:1036E000809169048091E10083FF27C08091E2000E
:1036F00083FF23C08091E100877F8093E10082E017
:103700008093690410926A048091E1008E7F809317
:10371000E1008091E2008E7F8093E2008091E200E0
:1037200080618093E20042E060E080E00E947D16CC
:103730008091F00088608093F000FF91EF91BF913D
:10374000AF919F918F917F916F915F914F913F9139
:103750002F910F900FBE0F901F9018952091E400AD
:103760003091E50095E64091EC00842F817040FF98
:1037700023C08091E80080FD1DC0809169048823EA
:1037800099F0853099F08091EB0085FD11C0409152
:10379000E4005091E5002417350729F3915011F00A
:1037A0009A01E1CF84E0089582E0089583E00895CE
:1037B00081E0089580E008954091E80042FFDDCF68
:1037C0000895EF92FF920F931F93CF93DF937C01A5
:1037D0008B010E94AE1B811119C0E7010115110573
:1037E000A1F08091E80085FD0AC08091E8008E7705
:1037F0008093E8000E94AE1B882381F307C0899163
:103800008093F10001501109E9CF80E0CDB7DEB718
:10381000E6E00C94652480914604089524E020930A
:10382000E9002FEF3091E800215035FD06C035ED5D
:103830003A95F1F700002111F5CF2091E80025FF1E
:103840000BC040E050E066E070E00E94E11B809118
:10385000E8008E778093E8000895CF93DF9320915E
:103860001301222339F02091950427FF03C060E261
:1038700024E002C068E021E02093E9002FEF3091BE
:10388000E800215035FD06C035ED3A95F1F700000E
:103890002111F5CF2091E80025FF1DC0EC0180919A
:1038A0001301811105C040E050E068E070E003C002
:1038B00070E040E050E0CE010E94E11B8091E80002
:1038C0008E778093E80080E2FE01A7E4B4E00190E7
:1038D0000D928A95E1F7DF91CF9108958093970437
:1038E0007093990460939804809169048430F9F48A
:1038F0008093E9008FEF9091E800815095FD06C01C
:1039000095ED9A95F1F700008111F5CF8091E800CF
:1039100085FF0DC040E050E063E070E087E994E08F
:103920000E94E11B8091E8008E778093E800089563
:1039300087E797E790930108809300089AE088E171
:103940000FB6F894A895809360000FBE9093600026
:10395000FFCF78941F920F920FB60F9211248F937E
:103960009F93AF93BF938091910490919204A09103
:103970009304B09194040196A11DB11D809391040C
:1039800090939204A0939304B0939404BF91AF9149
:103990009F918F910F900FBE0F901F9018959C01D3
:1039A0004FB7F8948091910490919204A091930460
:1039B000B09194044FBF821B930B08952FB7F894D6
:1039C0006091910470919204809193049091940479
:1039D0002FBF08952FB7F89480919104909192048D
:1039E000A0919304B09194042FBF08951F920F9259
:1039F0000FB60F9211248F939F93AF93BF93809133
:103A00009004811113C08091910490919204A0912F
:103A10009304B09194044196A11DB11D809391042B
:103A200090939204A0939304B0939404BF91AF91A8
:103A30009F918F910F900FBE0F901F90189520911E
:103A400013012223C9F02091950427FF15C0262FCA
:103A50002695269526952E31C8F4FC01E20FF11D1E
:103A6000677081E090E001C0880F6A95EAF7809561
:103A70009281892382830895FC0106962281621334
:103A800001C012823196E817F907C1F70895209115
:103A900013012223C1F02091950427FF14C0262F83
:103AA0002695269526952E3130F5FC01E20FF11D65
:103AB000677081E090E001C0880F6A95EAF7928113
:103AC000892B82830895FC0132962FEF30E04191DB
:103AD000641789F02F3F19F4411101C0232F3F5F74
:103AE0003630A9F72F3F39F0FC01E20FF11D27FD19
:103AF000FA9562830895089520918E0430918F0481
:103B00002817390771F090938F0480938E04E09109
:103B10008C04F0918D04309721F00084F185E02D24
:103B20000995089520918A0430918B04281739074C
:103B300071F090938B0480938A04E0918C04F0914F
:103B40008D04309721F00680F781E02D09950895C6
:103B5000E0918C04F0918D04309729F00190F08170
:103B6000E02D0995089580E008950F931F93CF935A
:103B7000DF93C42FD22FFC0182818823B1F04093C0
:103B800089040E94EA1C909388048093870480E251
:103B90008C0F883008F04DC0C77081E001C0880FDD
:103BA000CA95EAF70E94602244C0809189044813B4
:103BB00030C080918704909188040E94CF1C883C7B
:103BC000910538F510E21D0FCD17B9F080E28C0F8A
:103BD000883040F4C77081E001C0880FCA95EAF7C9
:103BE0000E945922183010F581E09D2F977001C076
:103BF000880F9A95EAF70E946022802F0E94162370
:103C00001830B8F4D77081E001C0880FDA95EAF770
:103C10000AC080E28C0F883060F4C77081E001C078
:103C2000880FCA95EAF70E94592203C0802F0E948C
:103C30001623DF91CF911F910F910895CF93DF93BA
:103C4000C7E7D1E060E0CE010E9482242196C11531
:103C500084E0D807B9F7DF91CF9108950F931F93B0
:103C6000CF93DF93843010F5611120C094E0899FD9
:103C7000E0011124C959DE4F411103C082E090E0F8
:103C800002C080E090E0632F022F142F8C0F9D1F45
:103C90000E948224111103C083E090E002C081E001
:103CA00090E0602F8C0F9D1F0E948224DF91CF91A6
:103CB0001F910F910895FF920F931F93CF93DF935E
:103CC000843030F5611124C024E0829F80011124EA
:103CD00009591E4F411103C082E090E002C080E00C
:103CE00090E0F42E800F911F0E94742490E0D82F52
:103CF000CC27F11003C083E090E002C081E090E0A7
:103D0000800F911F0E9474249E01282BC90102C0BC
:103D100080E090E0CDB7DEB7E5E00C9466241F9319
:103D2000CF93DF93962F8430E8F46430D8F44A3090
:103D3000C8F4632F122FC42FD0E0CC0FDD1F24E175
:103D4000929FC00DD11D112490E5899FC00DD11DFA
:103D50001124CE0187960E948224612FCE0188967D
:103D60000E948224DF91CF911F910895A0E0B0E0DE
:103D7000ECEBFEE10C9443240DE815E0C12CD12CB2
:103D8000912C812CE12CF12CC0E0D0E05601AE0C3E
:103D9000BF1CFE01EE0FFF1FEA0DFB1DE356FA4F9D
:103DA000259134914C2F682D892D0E948F1E2196CC
:103DB000CA30D10571F784E1E80EF11C839484E0E8
:103DC0008812E2CFF8012591349141E060E0892D1D
:103DD0000E942E1EF80132962591349140E060E059
:103DE000892D0E942E1E0C5F1F4F939480E5C80EF4
:103DF000D11C84E09812C5CFCDB7DEB7ECE00C94AF
:103E00005F240F931F93CF93DF93843008F56430C2
:103E1000F8F44A30E8F4C42FD0E0CC0FDD1F24E1E1
:103E2000629FC00DD11D112430E5839FC00DD11DAF
:103E30001124CE0187960E94742490E0182F002749
:103E4000CE0188960E9474249801282BC90102C0D3
:103E500080E090E0DF91CF911F910F910895462F60
:103E60008430B0F4672F743028F44A3048F40E944C
:103E7000011F08957D3F21F441110AC041E004C0B3
:103E80006C3F31F4411104C060E00E945B1E089554
:103E900080E090E0089580918604909185048823C5
:103EA00089F0992369F062E070E08BE895E00E9468
:103EB0002717892B19F080918504089510928504A5
:103EC0009091850481E08927089580918604882354
:103ED000F9F00E94DE1CDC01CB01805A9541AF4F06
:103EE000BF4F8093810490938204A0938304B09386
:103EF00084048091850481110BC062E070E089E840
:103F000095E00E942717892B19F481E0809385049E
:103F100080918504089586E290E00E9482240895AD
:103F2000CF93C82F811102C06FEF01C062E283E21C
:103F300090E00E948224C11102C06FEF01C062E0D4
:103F400084E290E00E948224C11102C06FEF01C0A0
:103F500064E185E290E00E948224CF91089580E0A0
:103F60000E94901F60E070E0CB010E948B1F0E94B6
:103F7000B61E0E941E1E81E00E94901F089583E2DB
:103F800090E00E947424823281F484E290E00E94E6
:103F90007424823051F485E290E00E94742491E010
:103FA000843109F090E0892F01C080E0817008958C
:103FB0000E94EA1C20917D04211104C020917E04FE
:103FC000222321F090937A048093790420917F0436
:103FD000211104C020918004222321F090937804C1
:103FE00080937704E0918C04F0918D04309749F030
:103FF00082E080937B040480F581E02D8BE794E0E0
:1040000009950895803F39F490917E0497FF35C05B
:1040100010927E0459C0813F29F490917E041916B4
:10402000BCF32BC090917D04823F29F497FF25C0FB
:1040300010927D0449C0833F19F41916CCF31DC0BA
:1040400090917F04893F29F41916BCF410927F04E3
:104050003BC08A3F19F497FF10C0F8CF8B3F39F46B
:104060009091800497FF09C0109280042DC08C3F6E
:1040700021F4909180041916BCF39CE0980F9530C0
:1040800080F421E030E0A90102C0440F551F9A9549
:10409000E2F7CA01809590917C04892380937C0487
:1040A00013C08D3F21F4809176048E7F0BC08E3F2C
:1040B00021F4809176048D7F05C08F3F29F4809193
:1040C00076048B7F8093760480917D04811106C0F5
:1040D00080917E04811102C01092750480917F044A
:1040E000811106C080918004811102C01092740475
:1040F00008958091760480FD16C081FD16C082FD72
:1041000018C080917404882391F0883290F428E0DC
:10411000829FC001112468E270E00E94B624862FBD
:10412000672B29F007C082E0089584E0089581E0BC
:10413000089588E008958091760480FD14C081FD83
:1041400014C082FD16C080917504882381F08E31E1
:1041500080F420E5829FC00111246EE170E00E948E
:10416000B624862F089584E1089588E2089588E0B2
:10417000089580E50895803F21F40E949B20819559
:1041800004C0813F29F40E949B2080937E040895FF
:10419000823F21F40E949B20819504C0833F29F433
:1041A0000E949B2080937D040895893F19F40E940A
:1041B000792005C08A3F31F40E947920819580934F
:1041C0007F0408958B3F21F40E947920819504C0DB
:1041D0008C3F29F40E9479208093800408959CE00C
:1041E000980F953078F421E030E0A90102C0440F27
:1041F000551F9A95E2F7CA0190917C04892B809310
:104200007C0408958D3F21F48091760481600BC079
:104210008E3F21F480917604826005C08F3F29F49F
:104220008091760484608093760408959B01782FB2
:10423000777043E0969587954A95E1F7FC01EE0F7C
:10424000FF1F8E0F9F1FF901E80FF91F40E050E09C
:1042500080E0219130E0072E02C0369527950A9420
:10426000E2F721703327042E01C0220F0A94EAF7E7
:10427000822B4F5F5F4F4330510559F70895962FBA
:104280009770A1E001C0AA0F9A95EAF793E076959E
:1042900067959A95E1F7FB01EE0FFF1F6E0F7F1FE9
:1042A000FA01E60FF71F40E050E0682F70E09081C0
:1042B0009B01042E02C0369527950A94E2F72170DF
:1042C000219529272A23292721934F5F5F4F4330C8
:1042D000510569F7089580E090E00E94921D80E00A
:1042E00090E00E947C1D10923D040E941713EBE7A2
:1042F000F4E086E0DF011D928A95E9F710927504DB
:1043000010927404109276040E94D81F0895CF92E0
:10431000DF92FF920F931F93CF93DF936C01009175
:10432000730480914004082BC7E0D0E010E0C8017E
:104330000C2E02C0959587950A94E2F780FD04C083
:104340002197A8F7F12C09C0FC2EB6018C2F0E94F2
:104350002F1F0E94F210019799F38F2DDF91CF91BB
:104360001F910F91FF90DF90CF900895292F9430E7
:1043700058F48A3048F490E06DE974E03AE0239F05
:10438000800D911D112406C02C5F223030F46AE9A3
:1043900074E090E00E941621089580E00895282F8F
:1043A000862F943060F42A3050F4622F70E02AE0B7
:1043B000929F600D711D11244DE954E007C09C5F70
:1043C000923030F4622F70E04AE954E00E943F21BD
:1043D0000895809373040E946B21089521E030E0DA
:1043E00001C0220F8A95EAF72095809173048223F9
:1043F0000E94E921089521E030E001C0220F8A9552
:10440000EAF780917304822B0E94E921089580933A
:1044100040040E946B210895CF93FC01808191811B
:1044200023813481232B31F09F3F31F491E08F3F82
:1044300019F403C091E001C090E0C92FC17090FD54
:104440001CC0808191810E94181492959F709630B3
:1044500079F010F4925001C09A50923088F4803F65
:1044600071F018F4883E60F40AC0843F49F407C034
:10447000883E28F0813F21F402C0C0E001C0C1E0C5
:104480008C2FCF91089510923E04809113018823C0
:1044900031F08091950487FF02C08EE101C086E073
:1044A000E6ECF3E0DF011D928A95E9F70E946B21AB
:1044B0000895882321F00E9410130E941713089575
:1044C000882339F090913E04892B80933E040E940A
:1044D00017130895882391F19CEF980F913A30F4C7
:1044E000682F84EC93E00E941F1D0DC090E2980F8E
:1044F000983060F4877091E001C0990F8A95EAF7CF
:10450000892F0E9410130E94171308959BE5980F9E
:10451000933028F480E090E00E94921D089598E581
:10452000980F973128F480E090E00E947C1D089558
:10453000803F20F00E9402200E94D81F0895CF9350
:10454000882309F471C0C82F8CEF8C0F813AC0F515
:10455000809113018823E1F08091950487FF18C0B2
:10456000EC2FE695E695E695F0E0EC53FC4F828162
:10457000282F30E04C2F477081E090E002C0880F78
:10458000991F4A95E2F782239323892B61F412C085
:10459000E6ECF3E08CEC93E02191C21721F08E174A
:1045A0009F07D1F707C06C2F84EC93E00E941F1D7A
:1045B0000E9417136C2F84EC93E00E94471D10C0DB
:1045C00080E28C0F883078F4C77081E090E001C001
:1045D000880FCA95EAF790913E04892B80933E0498
:1045E0000E94171321C0EBE5EC0FE33040F4F0E03C
:1045F000E65CFE4F808190E00E94921D15C0E8E5C8
:10460000EC0FE73150F4F0E0EE0FFF1FE35CFE4FDC
:10461000808191810E947C1D07C0C03F28F08C2FB3
:104620000E94BB200E94D81FCF9108951F93CF9363
:10463000DF93182F893319F0C0E0D0E002C0C0E545
:10464000D0E0812F0E949F22209741F08FE99FE0C8
:104650000197F1F700C000002197F6CF812F0E944B
:104660006A22DF91CF911F9108951092B9008CE0DA
:104670008093B8000895A0E0B0E0E1E4F3E20C9488
:104680004424B82EEB010E94EA1C6C01C431D10510
:1046900058F0CF3F8FEFD80759F0CE0164E170E0BA
:1046A0000E9429247B0107C0EE24E394F12C03C06F
:1046B00025E0E22EF12C84E8A82E94EA992E10929F
:1046C000BC009092BC000E94EA1C8C018091BC004E
:1046D00087FD07C0C8010E94CF1CE816F906B0F795
:1046E00029C08091B900887F883041F08091B9005D
:1046F000887F803119F00FEF1FEF1EC0B092BB0012
:10470000A092BC000E94EA1C8C018091BC0087FD35
:1047100007C0C8010E94CF1CE816F906B0F70AC00E
:104720008091B900887F883111F0803421F700E052
:1047300010E00EC00EEF1FEFCF3F8FEFD80709F448
:10474000BECFC6010E94CF1CC817D90708F0B7CF4B
:10475000C801CDB7DEB7EBE00C9460240F931F9334
:10476000CF93DF93EB018093BB0084E88093BC0080
:104770000E94EA1C8C018091BC0087FD0DC0CF3FD8
:104780008FEFD807C1F3C8010E94CF1CC817D90703
:1047900090F78EEF9FEF0CC02091B900287F81E049
:1047A00090E0283211F480E090E091958195910994
:1047B000DF91CF911F910F910895A0E0B0E0E3EE5B
:1047C000F3E20C9447246B018A017901B9010E943C
:1047D0003B23E6010C0D1D1DC017D10741F424E950
:1047E0002093BC00CDB7DEB7E8E00C94632497FDBE
:1047F000F6CFB70189910E94AE23EECFA0E0B0E0E2
:10480000E4E0F4E20C944724C62F6A017901B80170
:104810000E943B2397FD11C0B8018C2F0E94AE234C
:10482000E601EC0CFD1CCE15DF0539F097FD05C047
:10483000B80189910E94AE23F6CF24E92093BC00F1
:10484000CDB7DEB7E8E00C94632484E98093BC0024
:104850000895AA1BBB1B51E107C0AA1FBB1FA617C7
:10486000B70710F0A61BB70B881F991F5A95A9F719
:1048700080959095BC01CD0108952F923F924F9263
:104880005F926F927F928F929F92AF92BF92CF92E0
:10489000DF92EF92FF920F931F93CF93DF93CDB7E9
:1048A000DEB7CA1BDB0B0FB6F894DEBF0FBECDBF61
:1048B00009942A88398848885F846E847D848C8432
:1048C0009B84AA84B984C884DF80EE80FD800C813B
:1048D0001B81AA81B981CE0FD11D0FB6F894DEBF1E
:1048E0000FBECDBFED010895F999FECF92BD81BDF8
:1048F000F89A992780B50895A8E1B0E042E050E029
:104900000C94A824262FF999FECF92BD81BDF89A68
:10491000019700B4021639F01FBA20BD0FB6F89403
:10492000FA9AF99A0FBE08950396272F0E948324BE
:104930000E948224252F0E948324242F0C948324F8
:104940000196272F0E9483240C948224DC01CB0142
:10495000FC01F999FECF06C0F2BDE1BDF89A31968F
:1049600000B40D9241505040B8F7089597FB072EC0
:1049700016F4009407D077FD09D00E94292407FC83
:1049800005D03EF4909581959F4F0895709561955F
:104990007F4F0895EE0FFF1F0590F491E02D0994CD
:1049A0006927962769277827872778270895FB01A5
:1049B000DC0104C08D910190801921F441505040D8
:0C49C000C8F7881B990B0895F894FFCFEE
:1049CC000B1C2D1C0E1C1617111710170021007F25
:1049DC002200030192343536F4F5F6F7313332C642
:1049EC00976600FF0100010000FFFF0000010001BD
:1049FC00FF000008101818100800818283E200E9FB
:104A0C0000EA00B500B600B700CD008301CC008AE7
:104A1C00019201940121022302240225022602277D
:104A2C00022A02B300B4006F0070004022B6AA0440
:0A4A3C008804D203FC0415053505BB
:00000001FF
