:100000000C9455040C9472040C9472040C947204B5
:100010000C9472040C9472040C9472040C94720488
:100020000C9472040C9472040C945B1B0C949D1A37
:100030000C949D2A0C9472040C9472040C94720417
:100040000C9472040C9472040C9472040C94720458
:100050000C9472040C94761C0C9472040C9472042C
:100060000C9472040C9472040C9472040C94720438
:100070000C9472040C9472040C9472040C94720428
:100080000C9472040C9472040C9472040C94720418
:100090000C9472040C9472040C9472040C94720408
:1000A0000C9472040C9472040C9472044F0C650C42
:1000B0006C0CA40CB50CC70CD90CEC0C370D3C0D1A
:1000C0002C0E2C0E2C0E440D500D5A0D720DAA0D37
:1000D000BC0DE20D040EF013F01320142014BF1415
:1000E000DB14EF15EF15E6145A156B156B15A918EF
:1000F000D018851AD018851A1C193F19851A401A6C
:10010000501A00DA0281FFD9F1DB20A4A62EAF003D
:10011000A0C000A1C800AED580A81FD300408D1498
:10012000200000E0E0E0E0E0E0E0E0E0E0E0C0C08F
:1001300000000000E0E0E0E0E0E0E0E0E0E0E0E03F
:10014000000000FFFFFFFF010101010103FFFFFFAE
:10015000FF00000001010101FFFFFFFF010101019C
:10016000000000FFFFFFFF8080808080C0FFFFFF56
:10017000FF00000080808080FFFFFFFF8080808084
:1001800000000007C7C7E7E7E7E7E7E7E7E7C3C31C
:1001900000000000C7C7E7E7E7E7E7E7E7E7C7C70B
:1001A0000000007FFFFFFFE3C1C1C1C1C3CF8F8F3C
:1001B0000F0000FFFFFFFF030101010103FFFFFF2D
:1001C000FF0000F0F1F1F3C383838383C7FFFFFFD8
:1001D000FE0000FFFFFFFFC080808080C0FFFFFFA8
:1001E000FF0000E0E3E3E7E7E7E7E7E7E7E7C3C3AC
:1001F000000000E0E3E3E7E7E7E7E7E7E7E7C3C39B
:10020000000000FFFFFFFFC1C1C1C1C1E3FFFFFF4D
:100210007F0000FFFFFFFF010101010103FFFFFF5E
:10022000FF0000FFFFFFFF030303031FFFFFFFE1CA
:10023000000000FFFFFFFF8080808080C0FFFFFF85
:10024000FF0000E7E7E7E7E0E0E0E0E0E0E7E7E71E
:10025000E70000E7E7E7E7E7E7E7E7E7E7E7C3C344
:10026000000000FFFFFFFFC1C1C1C1C1C101010109
:10027000010000FFFFFFFFC1C1C1C1C1E3FFFFFFDC
:100280007F0000FFFFFFFF83838383838380808061
:10029000800000FFFFFFFF030303031FFFFFFFE1D9
:1002A00000000007C7C7E7E7E7E7E7E7E7E7C7C7F3
:1002B00007000007C7C7E7E0E0E0E0E0E0E7C7C706
:1002C0000700000F0F0F0FC3C1C1C1C1E3FFFF7FC4
:1002D0003F0000FFFFFFFF030101010103FFFFFFDC
:1002E000FF0000F0F0F0F0C383838383C7FFFFFEBD
:1002F000FC0000FFFFFFFFC080808080C0FFFFFF89
:10030000FF000000030307070707070707070303AA
:100310000000000003030707070707070707030399
:100320000000FD377A585A000004E6D6B4460200B1
:10033000210116000000742FE5A3E003F201655DC2
:10034000003D88898654A0BAD98FAB276729BD5054
:1003500041A9F8DAB4EE4F5828C6109C7568B91F49
:10036000D0F45BCA1602F4DC9AF7CB6913501498E8
:100370009D45A127ECD8926A4F590900DC2A82B228
:10038000E86B3FC9EEFE367839D1D78C323604445B
:1003900029E4EB89C82D5D24A567B46A28BC552AD9
:1003A0001388891E4AE42A341F2EA7D182951D592D
:1003B00010C66CE97AC171791E8139932B403F19BF
:1003C0008A40EB1478FAF0E6F98408F71F346C6F72
:1003D00056C08F6B2A22A39F645E6AABD63FD15270
:1003E0002AD1CB0499873A4FE08782A604F5D7112A
:1003F0007EAC2E885855CD6BAD05C39EECCBC5DFCA
:10040000DFE07102137D7D45CD19849BA68084E2D7
:10041000CD5AA9921F46E74F85EB062B02EAE3A1CE
:100420009279F7448B2E809BA5CE8B8E103124F5CC
:1004300032A9BE1398D9F2ED4C86DD3C45AF663744
:1004400086DE9FF60734F2FD75A02346CC2BC990BB
:10045000E9D1D63E05DB75A637761CB306C52B2839
:10046000470B176033D677A6149E4E34ABA98AD8B3
:10047000440CC160113F2E9CE76EB158990FAB47F9
:100480002AEFF11F821E8FC5CEDE7C2F8D110782D1
:100490006EA20F6F3B022C49FADC9E0140C91FEA95
:1004A000D8BB702CE20000000000AD01DFD1AA7EB5
:1004B00089F300018103F3070000BCC685C0B1C405
:1004C00067FB020000000004595A05010902A1015E
:1004D00085020901A1000509190129051500250159
:1004E00095057501810295017503810105010930AA
:1004F00009311581257F9502750881060938158116
:10050000257F950175088106050C0A38021581259D
:100510007F950175088106C0C005010980A101858C
:100520000319012AB700150126B70095017510813E
:1005300000C0050C0901A101850419012AA00215BA
:100540000126A002950175108100C005010906A1D0
:10055000018506050719E029E715002501950875AD
:100560000181020507190029EF1500250195F07595
:10057000018102050819012905950575019102956A
:100580000175039101C00660FF0961A101096215AF
:100590000026FF009520750881020963150026FFDB
:1005A00000952075089102C005010906A101050703
:1005B00019E029E7150025019508750181029501CB
:1005C000750881010507190029FF150026FF009510
:1005D0000675088100050819012905950575019121
:1005E00002950175039101C009025B00030100A09F
:1005F000FA090400000103010100092111010001B1
:1006000022400007058103080001090401000203DC
:1006100000000009211101000122220007058203C8
:100620002000010705030320000109040200010363
:1006300000000009211101000122BC00070584030C
:100640002000011201000200000008424C05700069
:1006500001010203011C037600690061006C003A8D
:10066000006600360034006300320062003300632D
:1006700000000016034400690073006F00720064FC
:10068000006500720033003000000014034C00428B
:100690000020007800200046004D004B0043000081
:1006A0000004030904A900AA0001000100010001DF
:1006B000000100010029001E001F0020002100226F
:1006C0000023005F00600061002B0014001A000886
:1006D000001500170028005C005D005E00E10004CA
:1006E000001600070009000A00520059005A005B7A
:1006F00000E000E20000002C000151500051004FCA
:100700000062006300005C010001000100010001C3
:1007100000010001000100010001000100010001D1
:1007200000010001000100010001000100010001C1
:1007300000010001000100010001000100010001B1
:1007400000010001000000010001000100010001A2
:100750000001000100010001000100010001000191
:100760000001000100010001000100010001000181
:100770000001000100010001000100010001000171
:100780000001000100010001000100010001000161
:100790000001000100000001000100010001000152
:1007A0000001000100010001000100010001000141
:1007B0000001000100010001000100010001000131
:1007C0000001000100010001000100010001000121
:1007D0000001000100010001000100010001000111
:1007E0000001000100000001000100010001000102
:1007F000000100010000AF00AE000000000000009A
:1008000000000000000000000000000000000000E8
:10081000000000000000000000000000007E0F004B
:10082000D4FFFFFFC70000007800000000000000B8
:10083000002A2B280000000000000000000000003B
:100840000000000029000000002C1E34202122247A
:10085000342627252E362D3738271E1F2021222308
:100860002425263333362E37381F0405060708099A
:100870000A0B0C0D0E0F1011121314151617181960
:100880001A1B1C1D2F3130232D35040506070809BE
:100890000A0B0C0D0E0F1011121314151617181940
:1008A0001A1B1C1D2F3130354C0011241FBECFEFF9
:1008B000DAE0DEBFCDBF11E0A0E0B1E0EEE5FAE6A0
:1008C00002C005900D92A438B107D9F726E0A4E83C
:1008D000B1E001C01D92A53FB207E1F70E94740488
:1008E0000C942D350C940000A2E5B0E0EAE7F4E0AA
:1008F0000C945E3485B7806885BF85B7806885BFF6
:1009000084B7877F84BF0FB6F894A8958091600064
:10091000886180936000109260000FBE90E080E8D4
:100920000FB6F89480936100909361000FBE8EE043
:1009300096E290938501809384010E94E6220E94B2
:1009400086220E9412220E94E11A0E94001B8091BE
:10095000E20084608093E20078948091F30688231B
:10096000A1F01091E9001F709091EC00892F817027
:1009700090FD80E8182B1092E9008091E80083FD3B
:100980000E94C6171F701093E90082E084BD93E0B7
:1009900095BD9AEF97BD80936E000E94422381110E
:1009A00002C00E9432230EE111E052E2E52E51E036
:1009B000F52ED8018D918D018F3F11F00E945326A5
:1009C000E016F106B1F702E211E0F80181918F0122
:1009D0008F3F11F00E945326F1E00C321F07A9F758
:1009E00088E0EBECF3E0DF01282F1D922A95E9F770
:1009F000E6E8F1E0DF011D928A95E9F780E090E0FA
:100A00000E94B634883E9E4F21F40E9442238111F9
:100A100002C00E94172882E090E00E94AE348093CA
:100A200090010E9406289093DC038093DB030E94D0
:100A30006D29EFEFF6E721E0E150F0402040E1F7CB
:100A400000C000000E946D298091CB0380FF08C088
:100A50006FEF7FEF80E090E00E94DA340E94651C27
:100A600083E090E00E94AE340E94AE1D83E080934C
:100A7000C20380E280939F010E9456336DE070E0D4
:100A800085E191E00E94DF32892B09F043C080911B
:100A9000C20363E070E081FD3AC082E191E00E9410
:100AA000DF32892BB9F56DE070E082E091E00E94C1
:100AB000DF32892B79F50E94852ADC01CB01805A2F
:100AC0009541AF4FBF4F8093240690932506A09386
:100AD0002606B0932706E2ECF1E080E092E0DF0129
:100AE0009C011D9221503040E1F7F093A101E09369
:100AF000A0018FEF9FEF9093C5038093C40381E023
:100B000080932906809328061092C30303C08FE0C8
:100B100091E0C5CF81E080939D0153985B9A5498F2
:100B20005C9A8FE891E00197F1F700C000003091E6
:100B30009D01EEE9F1E020E0231769F089B183FB24
:100B4000882780F94C9B02C092E001C090E0892B7D
:100B500081932F5FF1CF80E091E09093EF06809337
:100B6000EE0643ED242E43E0342E8091F3068530CB
:100B700009F049C030E4F32E00E112E18091F30660
:100B8000853009F03CC08091F306843029F10E9441
:100B9000C72D1092F206A8E1B0E00FB6F894A89520
:100BA000A09360000FBEF092600083B7817F8460E5
:100BB00083BF83B7816083BF7894889583B78E7F26
:100BC00083BF0FB6F894A8958091600088618093E8
:100BD0006000109260000FBE80910404882309F425
:100BE000CDCF0E946D29EBECF3E081919191892B9F
:100BF00011F00C94310E2E163F06B9F7BFCF0E94AC
:100C0000B31D0E944F2B0E946D2901E911E02BECCE
:100C1000822E23E0922E29E931E0D401F80141919E
:100C200051918D919D91842795272E173F0719F09B
:100C3000892BA9F334C0892B91F50E94912A8C014C
:100C400080918E0190918F010817190711F40C946F
:100C5000480E8FEF28968FAF289729968FAF299748
:100C60002A961FAE2A970E94912A8160782F2C968F
:100C70009FAF8EAF2C9728964FAD289729965FADE2
:100C800029972A966FAD2A972C968FAD2C970E94A4
:100C9000FD2F10938F0100938E010C94480E712C40
:100CA000F401A190B1904F01D801CD90DC90CA24FD
:100CB000DB24C114D104C1F1612CEE24E394F12CA6
:100CC000C6018E219F21892B31F12D966FAE2D9774
:100CD0002E967FAE2E9721E0C5018E219F21892B74
:100CE00009F420E02F962FAF2F970E94912A816060
:100CF000782F61969FAF8EAF61972D964FAD2D9750
:100D00002E965FAD2E972F966FAD2F9761968FAD74
:100D100061970E94FD2F6394EE0CFF1CBAE06B12EA
:100D2000CFCFF801B182A08273940E5F1F4FF4E021
:100D30007F12B6CF0E94852A442443948091E10615
:100D40009091E206892B09F43EC04091D60650915D
:100D5000D7066091D8067091D9062FB7F894809184
:100D6000D7039091D803A091D903B091DA032FBF94
:100D7000841B950BA60BB70B4091D2065091D3065E
:100D80006091D4067091D50684179507A607B7071A
:100D9000D0F08091E1069091E2060E94E32F10923C
:100DA000E2061092E1061092D6061092D706109233
:100DB000D8061092D9061092D2061092D30610923D
:100DC000D4061092D5068091EA069091EB06892B05
:100DD00041F18091990190919A010E949C1C8C0193
:100DE000BE01655D7F4F88E0DB011D928A95E9F7C2
:100DF0008091EA069091EB060E94CA228017910723
:100E000080F48091EA06BEE08B9FC0011124FC01B2
:100E1000EC5BFB4F208122FD04C0815C9B4F0E9454
:100E2000762B80911501882341F18091D006909115
:100E3000D106009711F10E949C1C20912A06309146
:100E40002B0628173907C8F49091CE068091CF065B
:100E5000981759F00E942E2D10922B0610922A06F8
:100E60001092D1061092D00608C00E94BE2C10929B
:100E7000D1061092D0060E940E2DC12CD12CF4E088
:100E8000EF2EF12CADEF9A2E88248394BCEF7B2EAD
:100E900080919D01C81608F0B1C0AC2CB12CE9B10D
:100EA000E3FBEE27E0F94C9B02C092E001C090E02A
:100EB0008E2F892BD501A256BE4FEC912E2F237079
:100EC00030E0482F082E000C550B2417350709F485
:100ED00093C0EE0FEE0FE82BEC93EF70F0E0E45DC3
:100EE000FE4F850104561E4F9081F8018081890FC5
:100EF000808384300CF440C0F501E556FE4F8081BC
:100F00008F5F80830E94912ACDAE7EAE8FAE8160CE
:100F1000782F22969FAF8EAF22974C2D5CEF61E029
:100F200022968FAD22970E94FD2F8FE39FE10197BC
:100F3000F1F700C000000E94912A2396CFAE2397BC
:100F400024967FAE249725961FAE25978160782F33
:100F500027969FAF8EAF27974C2D5CEF60E02796CA
:100F60008FAD27970E94FD2FAFE3BFE11197F1F7F7
:100F700000C0000021E001C020E0F80180818D3F29
:100F80008CF5F501E556FE4F8081815080830E94EB
:100F9000912ACBAA9CAA8DAA8160782F9FAB8EAB99
:100FA0004C2D5DEF61E08FA90E94FD2F8FE39FE143
:100FB0000197F1F700C000000E94912AC8AE99AED7
:100FC0001AAE8160782F9CAF8BAF4C2D5DEF60E047
:100FD0008CAD0E94FD2FAFE3BFE11197F1F700C088
:100FE000000021E0F8018081082E000C990BB70168
:100FF0000E94F8348083D22AC3944ACFD1100E9431
:10100000852A80912906882309F432C182EC91E077
:101010009093A1018093A0012091C4033091C50356
:10102000DC0180E090E041E050E0FC01EE5DFE4F2D
:10103000E4916C91E61779F0EC93BC01E5E07695CC
:101040006795EA95E1F7FA0102C0EE0FFF1F6A9576
:10105000E2F72E2B3F2B019611968115F2E09F07A8
:1010600021F73093C5032093C4032115310509F4FA
:10107000E4C08091C3038111E0C061E070E0082FFB
:1010800010E07B01082E02C0EE0CFF1C0A94E2F770
:10109000A70142235323452B11F48F5FF0CF90918A
:1010A000C203980145E0220F331F4A95E1F790FDF6
:1010B00012C08295880F807680930E01220F232F15
:1010C000221F330B319520931101815E80930F0114
:1010D0001092120112C085E0369527958A95E1F7A6
:1010E000220F220F220F20930E0110921101295F6F
:1010F00020930F0183E08093120124E630E047E063
:1011000050E06CE071E088E70E94FE33892B09F023
:1011100094C08091C20380FD22C0A80115E0440F55
:10112000551F1A95E1F74E535E4F04E610E020E29A
:1011300030E060E488E70E941F34892B09F07DC00D
:101140000E94E12DE094F0948091C4039091C50336
:10115000E822F922F092C503E092C4036EC080E257
:10116000E2EAF1E0DF011D928A95E9F7A801B5E016
:10117000440F551FBA95E1F7E0E4F1E06396FFAF45
:10118000EEAF63970CE311E0552453946396AEAD34
:10119000BFAD63978D916396BFAFAEAF6397F80114
:1011A00091918F01BA01690F711D6E537E4F90E0CE
:1011B0008E559E4FFC01A7E0CA2E9F01281B390BBC
:1011C000752C01C0770C2A95EAF75B01812CD501BB
:1011D0009D905D0197202C2D28192770622E022EDC
:1011E000000C330BB92D01C0BB0F6A94EAF76B2ECC
:1011F0003195219531092770332701C096942A959E
:10120000EAF76928908069286082839428E0821236
:10121000DECFCA9431963FEFC312CFCF63968EAD27
:101220009FAD63978454914009F0B0CF04E610E07D
:1012300020E230E042EA51E07CCF8091280688230A
:10124000B9F00E94852A009124061091250620916C
:10125000260630912706DC01CB01801B910BA20BE7
:10126000B30B8F3F9F4FAF4FBF4710F40E94C72D66
:10127000411001C0D1100E94E12D86E0E7E2F4E0C8
:101280008E010F5F1F4FD80101900D928A95E1F7F3
:101290001092290410922A0410922B0410922C040C
:1012A0008B81811104C08C81882309F453C0809103
:1012B0002504909126040E949C1C9C01909121047D
:1012C000992309F4F0C42531310508F443C09F3F48
:1012D00019F09F5F90932104FB80FF2061F00E9432
:1012E00002241F1414F491E001C09FEF899F802D08
:1012F000112480932904FC80FF2061F00E940224C5
:101300001F1414F491E001C09FEF899F802D1124D8
:1013100080932A04309129043323E1F020912A0498
:101320002223C1F045EB3403C0011124992319F0A5
:101330009093290403C081E08093290465EB260380
:10134000C0011124992319F090932A0403C081E06D
:1013500080932A048D81811104C08E81882309F431
:1013600053C080912304909124040E949C1C9C01F2
:1013700090912004992309F49BC42135310508F488
:1013800043C09F3F19F09F5F90932004FD80FF2092
:1013900061F00E94E0231F1414F491E001C09FEF5C
:1013A000899F802D112480932B04FE80FF2061F003
:1013B0000E94E0231F1414F491E001C09FEF899F65
:1013C000802D112480932C0430912B043323E1F0E1
:1013D00020912C042223C1F045EB3403C0011124D9
:1013E000992319F090932B0403C081E080932B0480
:1013F00065EB2603C0011124992319F090932C0466
:1014000003C081E080932C0446E050E0B80187E2FD
:1014100094E00E941935892BA9F480912904811147
:101420000FC080912A0481110BC080912B0481117F
:1014300007C081E090912C04911103C080E001C0AD
:1014400081E080FD0E94E42586E0F801A7E2B4E097
:1014500001900D928A95E1F70E944F2B9091C6035F
:10146000891721F08093C6030E94852A8091F30694
:10147000843009F07ACB83E08093E9008091E80022
:1014800082FF73CB8091E80085FF21C00E94321C4F
:1014900081111BC040E2E42EF12C680109C080914B
:1014A000F100D6018D936D01B1E0EB1AF10869F0FE
:1014B0008091E80085FDF3CF8091E8008B778093E1
:1014C000E8000E94321C882399F391E001C090E06B
:1014D0008091E8008B778093E800992309F445CB4D
:1014E000E0902206F09023068981E114F10461F076
:1014F0008E3F09F0B1C38A81833008F4C4C185509E
:10150000833008F0A9C3BFC18B3009F4A6C110F520
:10151000853009F478C0B0F48230C1F130F4813004
:1015200009F098C31A8289E0C3C2833009F45EC00F
:10153000843009F08FC34C816B818A810E94E42141
:101540009D83AFC3873009F485C308F083C30E942D
:10155000422E82C3803109F4C1C060F48D3009F499
:101560005FC008F45BC08E3009F45EC08F3009F4B0
:1015700086C070C3823109F4B7C008F4B2C08331A9
:1015800009F4DCC08E3F09F47EC164C38A818230D5
:1015900009F480C3833051F0813009F05BC30E94AD
:1015A000852A9B838C837D836E8356C380911E0620
:1015B00090911F06892B09F44FC38091CB03909122
:1015C000CC039B838C838091CD039091CE039D832C
:1015D0008E838091CF039091D0039F8388878091E1
:1015E000D1039091D20399878A8736C38A8182304A
:1015F00009F030C36B817C818D819E810E94123500
:101600000E940E2329C32D813E81322723273227B2
:101610004C816B818A810E94BD211EC380E162C022
:1016200081E08A8389E944C2EA80FB80FE24EF24BA
:10163000FE24AC80B12CEDE1AE16B10408F00CC371
:101640006801C70189599D4F9601201B310B2A154E
:101650003B0508F001C3F9E9EF16F1E0FF0630F4AD
:101660000E94AE34D60114968C9302C0F601148207
:10167000FFEFEF1AFF0A2FEFC21AD20AE2CF8091D2
:101680001E0690911F06892B09F4E6C2EA80FB80B2
:10169000FE24EF24FE24CC80D12C3DE1C316D104DE
:1016A00008F0DAC25801C70189599D4F9501201BE6
:1016B000310B2C153D0508F0CFC249E9E41641E095
:1016C000F40628F4D50114966C910E94BC34BFEF47
:1016D000EB1AFB0AEFEFAE1ABE0AE5CF0E94072E07
:1016E000BBC284E08A83B8C2EA80FB80FE24EF2478
:1016F000FE24AC80B12CFDE1AF16B10408F0ACC201
:101700006801C70187969601201B310B2A153B05FE
:1017100008F0A2C220E4E21621E0F20630F40E94B2
:10172000AE34D60114968C9302C0F6011482FFEFFA
:10173000EF1AFF0A2FEFC21AD20AE3CFEA80FB802A
:10174000FE24EF24FE24AC80B12C3DE1A316B104AD
:1017500008F082C2370147E2640E711C60E4E616AD
:1017600061E0F60608F078C280E491E08E199F09E6
:101770008A159B0508F470C280911E0690911F0681
:10178000892B11F0680160C0E0FE0FC0C70186968A
:101790000E94AE3490E0982F88272D81822B8115EE
:1017A0009C4531F48FEF8D8303C0C12CD12C03C035
:1017B000CC24C394D12CC5018E0D9F1D450180FF03
:1017C0001BC0B1E08B1A9108B5E04B2E512C4C0E8A
:1017D0005D1E480C591CC3018A0D9B1D0E94AE342E
:1017E000F201208130E0322F2227282B21153C45A1
:1017F00019F48FEFD2018C93F801EC0DFD1D2FEF42
:10180000CF01801B910B8815990508F0BBCF84810F
:1018100090E0982F88273581832B81159C4511F402
:10182000248325833296ECCFE0E4EE16E1E0FE0659
:1018300028F4D60114966C910E94BC34BFEFEB1AC9
:10184000FB0AEFEFCE1ADE0AC70187969601201B2E
:10185000310B2A153B0540F3FFC180911E06909184
:101860001F06892B09F4F8C1C8010E943033FFEF2D
:1018700021EE34E0F15020403040E1F700C000009C
:101880000E94651CE9C1EA818E2F90E08E3091059F
:1018900008F0E2C1FC01EA5AFF4F0C940C3588E0D5
:1018A000E6E1F1E0DE01919601900D928A95E1F773
:1018B00080E2D8011D928A95E9F785E0898388E066
:1018C000FE01B196DE0115969AC188EA898381E00E
:1018D0008A831B821C82C0C18C8190E0982F88274C
:1018E0002B81820F911D092E000CAA0BBB0B75E0FA
:1018F000880F991FAA1FBB1F7A95D1F7AC01BD01B4
:10190000405E5F4F6F4F7F4F481759076A077B074D
:1019100008F4A2C1883AE1E09E07A105B10508F0EC
:101920009BC1493AF1E05F076105710520F048EA83
:1019300051E060E070E0481B590BBC016E5D7C4FCC
:10194000C8010E94953488C1FB80EC8040E06E2D78
:101950008F2D0E94892199838A8341E06E2D8F2DDE
:101960000E9489219B838C8377C18E819F819827D8
:10197000892798270E94FE2241E02D81211101C074
:1019800040E09C016C818B810E945C2165C140E23A
:1019900050E06FEF70E0C8010E94263580911E066E
:1019A0008983EA8283E08B8395E09C838D8387E043
:1019B00078C181E090E0909323068093220682E331
:1019C00090E09093CA038093C9030E94912A909358
:1019D000C8038093C70340C1EF2809F43FC080913A
:1019E000D1039091D2039C0145E0369527954A9505
:1019F000E1F7880F892F881F990B91958170F82E38
:101A0000F2228091C7039091C8030E949C1C8536E6
:101A10009105F0F0FF20E1F00E94912A9093C80315
:101A20008093C7038091C9039091CA030197909353
:101A3000CA038093C903892B89F41092230610925C
:101A4000220681E090E090931F0680931E0606C058
:101A500082E390E09093CA038093C90380911E06AD
:101A60008983809122068A838091C90321C01092C4
:101A70001F0610921E06F0C040E250E06FEF70E0CB
:101A8000C8010E942635E8C0EB818E2F90E0873098
:101A9000910508F0E1C0FC01EC59FF4F0C940C35A6
:101AA00080E2D8011D928A95E9F788E089838A83CC
:101AB0008B83D2C08C819AE0F92E6E01B1E2CB0EFD
:101AC000D11CF6012F2D11922A95E9F7B6010E943B
:101AD000E92E8983F601DE01129601900D92FA94A7
:101AE000E1F7BAC0FC808AE0FE013596DE019196EE
:101AF00001900D928A95E1F789A19AA10E94FE2298
:101B00009AA389A38BA19CA10E94FE229CA38BA3D4
:101B10008DA19EA10E94FE229EA38DA38FA198A5B8
:101B20000E94FE2298A78FA337E03F1570F04AE08D
:101B3000F49EB001112469587E4F4AE050E0CE0176
:101B400081960E94E03480E001C08FEF89830E947B
:101B5000E62282C06C81CE0181962AE0DC011D92D2
:101B60002A95E9F7683008F043C0BAE06B9FB001EE
:101B7000112469537E4F36C0FC808AE0FE01359601
:101B8000DE01919601900D928A95E1F789A59AA5BB
:101B90000E94FE229AA789A7E7E0EF1570F0FAE00D
:101BA000FF9EB001112469537E4F4AE050E0CE0100
:101BB00081960E94E03480E001C08FEF89830E940B
:101BC00086224AC06C81CE0181962AE0DC011D92FA
:101BD0002A95E9F7683060F4BAE06B9FB0011124F0
:101BE000695E7D4F4AE050E00E949E3480E001C073
:101BF0008FEF89838AE0FE01B196DE011296019093
:101C00000D928A95E1F728C0FC808AE0FE013596A6
:101C1000DE01919601900D928A95E1F78BA19CA12E
:101C20000E94FE229CA38BA3E7E0EF1570F0FAE080
:101C3000FF9EB0011124695E7D4F4AE050E0CE0165
:101C400081960E94E03480E001C08FEF89830E947A
:101C5000122202C08FEF8983C8010E9430330C9496
:101C6000B50509BD19BD09B400FEFDCF8091D800AE
:101C70008F7D8093D8008091E00082608093E000A7
:101C80008091E00081FDFCCF0E94B31D0C94BE0545
:101C9000412C54C886E290E00E94AE341B821C8224
:101CA0001D828E83D9CF2B30310508F012CB52CB59
:101CB0002B30310508F067CBA7CBACE0B0E0E3E612
:101CC000FEE00C945E347C01DC0113964D915C9136
:101CD000149711966C9111978C910E94812C81110F
:101CE0000C94781661E0C7010E94702F8C01F701F7
:101CF00082818823E1F08091EA069091EB060097BB
:101D0000B1F00817190799F0FEE08F9FC001112468
:101D1000FC01EC5BFB4F208124602083815C9B4FA6
:101D2000DC010D931C930E94762B1092E806F701BC
:101D30003280332009F477C7C80182519F4540970C
:101D400008F0B3C08FEF93E00E94AE348111DBC482
:101D50003EEED32ED00E07E612E0DD2071F0011525
:101D6000F4E01F0709F4CFC4C8010E94AE3481110A
:101D700001C0DA940F5F1F4FF0CF19821A821B82C5
:101D80001C82AA24AA9468012FEFC21AD20AC801A1
:101D90000E94AE3489831A82882309F4B4C4813046
:101DA00009F07EC0480132E0830E911CC6010E94FA
:101DB000AE34B82E8A83882309F4A5C48FEF8B0D27
:101DC000833060F4680143E0C40ED11CC4010E945A
:101DD000AE348B83811164C08601D5CF8BEF8B0D20
:101DE000833078F5380153E0650E711CC4010E9400
:101DF000AE348B83811102C06301EECF680184E0B1
:101E0000C80ED11CC3010E94AE348C83882321F3F9
:101E10002B813C8121309FEF390718F0922F80E011
:101E200001C0C901A6E0BA1631F0B7E0BB1631F027
:101E30000E943825D1CF0E941225CECF0E948A243D
:101E4000CBCFE4E0BE1611F06401C6CFC4010E94FE
:101E5000AE34B82E6801F4E0CF0ED11CC801039651
:101E60000E94AE34BB2009F44EC4882309F44BC44D
:101E7000282F30E021503109A29EA001A39E500DD1
:101E800011248B2D90E00197840F951F019708F482
:101E9000A3CFAFE9BFE01197F1F700C00000F6CF84
:101EA000CE0101960E94333297CF0031EFE51E0735
:101EB00031F00131FFE51F07B1F482E001C081E09C
:101EC0000E94A21D0E9427321EC4680127E5D21A73
:101ED0003FEFC316D10409F008F4B4C6D701129637
:101EE0003C903320D1F00F35BDE51B0761F0003683
:101EF000EDE51E0761F00E35FDE51F0771F48091D9
:101F00001301811104C081E080931301FCC310927E
:101F1000130180E00E94F22BF6C38091130181111E
:101F200008C0C80197558F3F910509F008F47AC1A0
:101F3000CAC1480120EE821A91082090F9058091CB
:101F4000D603282A8091E906282A38E083169104CE
:101F500080F498012770332781E090E001C0880F5A
:101F60002A95EAF7332011F0282A18C080952822F4
:101F700015C0332009F416C11093D4030093D30382
:101F80000E94852A6093DA067093DB068093DC0654
:101F90009093DD061092E2061092E106D7018D9132
:101FA0009C910E94581D21E030E0F90102C0EE0F23
:101FB000FF1F8A95E2F7FC87EB872091E3063091BB
:101FC000E40638872F834091D3035091D4035A8776
:101FD00049871D82432C512C5D81E52FF0E0EE0FE7
:101FE000FF1FE050FB4FC080D180C114D10409F421
:101FF000F0C0211005C0D60112968C918111CEC07F
:10200000F601838190E02B853C8582239323892BE5
:1020100009F4C4C08085982F977009F487E038E0F0
:102020008316910440F4332019F081FD09C0B6C035
:1020300082FD06C0B3C0332009F4B0C080FFAEC03B
:10204000D601AD90BC900A151B0519F4332009F494
:10205000A5C0EF81F885CE16DF0609F49FC0D60132
:102060001D96ED91FC911E97309721F08081882379
:1020700009F494C0622DC6010E94612C882309F4E2
:102080008DC00A151B0511F4320102C0612C712CA0
:10209000B62DB170BE8381E0A114B10441F0B1113D
:1020A00006C0E985FA85AE16BF0609F080E080FF1C
:1020B00075C080E00E94F22BD092E406C092E30645
:1020C00081E08093E006D60115968C918093DE0620
:1020D000BE81B11113C0AB2889F0F60180819181D6
:1020E0009C0124503109213A310530F4682F8EEFDC
:1020F00095E00E94C62A02C00E94EB1DD6011696EA
:10210000AD90BC901797C5019A9581159F4110F429
:10211000E0EEBE2255245394C5010197803B9D45B6
:1021200008F0512CD6011996ED91FC911A97309731
:1021300039F01B966D917C911C9781E0099558228E
:10214000552029F1F601868197810E94B62F809350
:10215000DF06C501F8E08F16910418F40E94A12B48
:1021600016C00497813A910530F46A2D8EEF95E000
:102170000E94EE2A0EC00E94E5288FE39CE9019799
:10218000F1F700C000008A2D0E94201E02C00E94AC
:10219000E52891E0692660FE77C2C3CEAD81AF5FCE
:1021A000AD831ACF8091D3039091D40308171907F8
:1021B00081F41092D4031092D3031092DA06109295
:1021C000DB061092DC061092DD061092E2061092F9
:1021D000E1068091E3069091E406009709F4A1CE10
:1021E000B8E08B16910438F4622D0E94612C8111A5
:1021F00098CE81E014C0FC012081318102171307C1
:1022000029F4311006C01092E00608C0332009F40A
:1022100088CEDC0118968C9185FD83CE80E00E94EB
:10222000F22B7FCE5801BB24BEE00B9FF00111249E
:102230009F01215C3B4F6901D70112969C91129737
:10224000EC5BFB4F808190FB80F9808312969C9120
:102250009923A1F10E94912A90939A018093990168
:10226000F60182818F5F82839091E8068091E90672
:10227000892B83838091F90584830680F781E02D83
:10228000309739F0D6011C966D917C911D97C6014F
:1022900009958EE08A9DF0018B9DF00D1124EC5B79
:1022A000FB4F808181FF03C090E080E002C0902F4F
:1022B000812F9093EA068093EB0605C081FF03C04F
:1022C000C9010E945C2B033FBCE51B0741F190F460
:1022D000083DFCE51F07E9F0093D2CE5120789F1EF
:1022E000073D3CE51307B1F506E221EE41EE67ED4F
:1022F0007CE52CC0053F4CE51407E9F0B0F0063F43
:102300008CE5180739F507E225EE46EE66EF7CE529
:102310001DC007E225EE45EE68ED7CE517C006E23C
:1023200021EE40EE63EF7CE511C007E225EE44EEBE
:1023300064EF7CE50BC006E221EE42EE65EF7CE542
:1023400005C008E221E045EE69ED7CE5C7010E9489
:10235000FE2ED9C1D70112968C91882309F4E6C1CB
:102360001092E7060330BDE51B0758F40A3FECE581
:102370001E07C0F4C80182509C45449708F071C103
:1023800011C0053AFDE51F0769F030F401363DE55F
:10239000130709F066C106C0C8018D5A9D45039711
:1023A00008F05FC10E9406289093DC038093DB0352
:1023B00002314CE5140709F40CC108F04DC0093096
:1023C0008CE5180709F4D9C008F50530ACE51A0703
:1023D00009F4C0C080F40330ECE51E0709F4B1C075
:1023E00008F0B5C002302CE5120709F02AC180912F
:1023F000DB038160A9C007303CE5130709F4B5C0D1
:1024000008F0B7C08091DB0380619EC00D305CE5B1
:10241000150709F4C8C058F40B309CE5190709F4F6
:10242000B6C008F0BCC08091DB038860ACC00F3040
:10243000BCE51B0709F4C5C008F4B8C00031FCE5D1
:102440001F0709F4C2C001312CE5120709F0F9C0D9
:102450008091DB038F7B78C00F3F3CE5130709F4C5
:10246000C3C098F50A3F5CE5150709F477C0C0F4CE
:1024700004319CE5190709F4C6C008F4B0C0053161
:10248000BCE51B0709F0DDC08091DB0382FB22273E
:1024900020F991E0922790FB82F990FB83F954C0D8
:1024A0000C3FECE51E0709F485C008F45AC00D3F47
:1024B0002CE5120709F481C00E3F3CE5130709F033
:1024C000C0C08091DC03826060C001364DE5140716
:1024D00009F4ABC070F401308DE5180709F49FC012
:1024E00008F487C00230ADE51A0709F0AAC060E021
:1024F00097C00D3ABDE51B0701F160F4053AFDE513
:102500001F0709F09EC08091DB03982F909590FBE8
:1025100080F91AC00E3A2DE51207E9F10F3A3DE5B0
:10252000130709F08EC08091DC0383FB222720F97A
:1025300091E0922790FB83F982C08091DC03886050
:102540007EC08091DB0382608093DB037AC0809140
:10255000DB0319C08091DB038860F6CF8091DC0338
:1025600014C08091DC0382606AC08091DB038062CA
:10257000EBCF8091DB038064E7CF0E94B31D809195
:10258000DB038068E1CF8460DFCF816058C0809139
:10259000DB038E7FD9CF8091DC03877F50C0809191
:1025A000DB038D7FD1CF8091DB031CC08091DB03E7
:1025B000877FCACF8091DC031AC08091DC038D7FB6
:1025C0003EC08091DB038F7EBFCF8091DB038F7D88
:1025D000BBCF0E94B31D8091DB038F77B5CF809175
:1025E000DB03877F8B7FB0CF8091DC038D7F8E7F75
:1025F00026C08091DC03982F909591708E7F892B57
:1026000090FB81F91CC00E94B31D8091DB0387FB06
:10261000222720F991E0922790FB87F995CF61E07E
:102620008EE090E00E94BC340CC08091DB0384FB00
:10263000222720F991E0922790FB84F985CF80939F
:10264000DC036091DB031091DC0384E090E00E94E6
:10265000BC34612F82E290E00E94BC340E94B31D22
:1026600052C00631FCE51F07A1F48091E9068A7A81
:1026700091E009F490E09093D503882341F065E35D
:102680008EEF95E00E94EE2A0E94E5283CC069E2A8
:10269000F7CF0A354DE5140781F160F401158CE59B
:1026A000180791F00E3D9CE5190709F044C00E94FF
:1026B000172818C00C35ADE51A07B9F000F1073A34
:1026C000EDE51E0779F037C00E94B31DFFEF24E34C
:1026D0003CE0F15020403040E1F700C000000E9493
:1026E000651C11C00E94A02F0EC08091DC0382FBEC
:1026F000882780F991E0892703C081E001C080E04C
:102700000E94BF2818C08091D605877009F4F0C2D6
:10271000D70112968C91882309F4EAC28091DC03D8
:1027200082FFE6C282E00E94A228E2C20631FCE5F6
:102730001F0709F4D1C2D70116968D919C91179766
:102740000097B9F4F701828100811181882349F053
:10275000C8010E941C1DD82E682FC8010E94751D3B
:1027600004C0C8010E94581DD82EB8018D2D0E94AA
:10277000172E0E946A268C01D7011296DC901297C0
:102780001596CC90C2949FE0C9228091D60587709F
:10279000B9F0DD20A9F0812F807F803421F080E224
:1027A000800F883068F08091DC0382FF09C082E0EE
:1027B0000E94A2288091D6058770BB24B394811112
:1027C000B12CA12EA2948FE0A8228A2D90E08C300B
:1027D000910508F004C2FC01E559FF4F0C940C353B
:1027E000812F807F1F70882311F01295107FDD20CC
:1027F000B9F0112309F4E0C180E2800F883010F0B5
:10280000011106C09091E906192B1093E90605C045
:102810009091E806192B1093E8060E94E528CCC198
:10282000802F0E94EB1D112309F4D9C180E2800F93
:10283000883060F1002351F1812F0E948D2829C03A
:10284000812F807F1F70803211F01295107F00233E
:1028500021F0013009F46BC076C08091DC0382FD69
:102860001BC0DD2069F0112339F09091E906192B86
:102870001093E9060E94E52880E00E94201EAFC167
:1028800080E00E94EB1D112309F4A9C1812F0E9451
:1028900094280E94E528A3C1DD2049F1CC2009F14C
:1028A000B1E0CB120FC08091F905182B181709F46D
:1028B00096C10E94912A9093F8058093F705109392
:1028C000F9058DC1E5E0CE120CC00E9482289091DE
:1028D000D603812F892B891709F442C08093D60330
:1028E0003FC08091F905812B0E94E11D78C1CC2069
:1028F000C1F0F1E0CF1211C08091E906812309F403
:102900006EC10E9482289091D603812F80958923E1
:10291000891749F08093D60306C025E0C21609F452
:102920005EC10E948228812F0E94DA1D58C1DD20DD
:1029300029F035E03C1508F452C112C044E04C15B2
:1029400008F44DC1F0CFDD2069F0CC2049F0D7016B
:1029500015968C91159780FF2FC18F7015968C93CB
:10296000812FC2CFCC20F9F2093309F035C1BFEF76
:10297000E7EEF3E0B150E040F040E1F72BC1812FEA
:1029800086958695837019F0813059F028C1DD2035
:1029900019F0C801937002C080E090E00E94392BCA
:1029A00024C1DD2019F0C801937002C080E090E0DE
:1029B0000E94232B1AC1802FDD2019F00E942224AF
:1029C00002C00E945B230E94E4250FC1812F837007
:1029D000A9F5D11008C1402F429546954770440F84
:1029E000440F802F8F7090E09C01042E01C0220FB5
:1029F0000A94EAF704FF08C08FE090E001C0880F56
:102A00004A95EAF7809501C080E0169516951370F7
:102A1000123069F088F49091FA05113019F0822B88
:102A2000892302C0922B892B0E94AE1DDCC0822B11
:102A30009091FA058927F8CF822BF6CFDD2019F087
:102A4000812F817001C08695882309F4CCC0402F66
:102A5000429546954770440F440F802F8F7090E049
:102A60009C01042E01C0220F0A94EAF704FF08C05B
:102A70008FE090E001C0880F4A95EAF7809501C089
:102A800080E0169516951370123059F078F49091F5
:102A9000F406113019F0822B892309C0922B892B5F
:102AA00006C0822B9091F406892701C0822B0E94D8
:102AB000901D99C01F70DD2039F0812F0E94A21D4A
:102AC000802F0E94E11D8FC0802F0E94DA1D812F70
:102AD0000E94951D88C0023F69F128F4003F41F033
:102AE000013F09F164C0033F61F1043FC1F05FC0E1
:102AF000DD2081F024E02C1508F471C01F7181E005
:102B000090E0012E01C0880F0A94EAF79091F40634
:102B1000892722C035E03C1508F461C0EFCF8091D1
:102B2000DC0382FD1CC0DD2039F0812F8F710E94F3
:102B3000A21D55C0DD20C9F3812F8F710E94951D04
:102B40004EC0DD2041F01F7181E0012E01C0880FD1
:102B50000A94EAF701C080E00E94901D40C0DD2089
:102B6000B9F08091D6058770843039F40E949B2893
:102B7000812F8F710E94951D54C044E04C1508F4BC
:102B800050C01F71812F0E94A21D63E0812F08C0D9
:102B900054E05C1540F40E949B2864E0812F8F7103
:102BA0000E9456293EC081E00E94A2283AC0DD2042
:102BB00029F0CC2009F4B9CF802F5FCECC2009F4C6
:102BC000BBCF093349F48FEF97EEA3E081509040DB
:102BD000A040E1F700C00000802F0E94EB1D88EFAD
:102BE0008A0D843010F40E944F2BBB20A9F08091F5
:102BF000D60580FD11C0F7011282859585958595D2
:102C00000E94A21DC7010E945D0E8091D605859588
:102C1000859585950E94951D60E0C7010E94702FE3
:102C200067C0B12CE0CF0031BFE51B0721F481E084
:102C30000E94951D47C90131EFE51E0709F045C9FE
:102C400082E0F6CF65E374E08C2D0E94E92E892B9B
:102C500009F044C98EE08C9DF0018D9DF00D11248A
:102C6000E15CFB4F82818130E1F4809135049091E9
:102C70003604892B09F432C98091370490913804C5
:102C8000892B09F42BC98091390490913A04892B3E
:102C900009F024C980913B0490913C04892B59F0A0
:102CA0001DC9823009F01AC98091390490913A0403
:102CB000892B09F413C92EE02C9DC0012D9D900D88
:102CC0001124FC01EC5BFB4F20812E7F2083815C73
:102CD0009B4F0E94762B02C98091D503882311F067
:102CE00065E301C069E28EEF95E00E94C62ACCCC74
:102CF0002C96E2E10C947A348091060487FF11C08F
:102D00008091E80082FD05C08091F3068111F8CF23
:102D100011C08091E8008B770BC08091F306882367
:102D200049F08091E80080FFF8CF8091E8008E772D
:102D30008093E8000895982F973068F59093E90004
:102D4000981739F07091EC002091ED005091F0004F
:102D500003C0242F762F50E021FD02C09F5FECCFEF
:102D60003091EB003E7F3093EB003091ED003D7FE2
:102D70003093ED003091EB0031603093EB007093B5
:102D8000EC002093ED005093F0002091EE0027FD21
:102D9000E5CF80E008958F708093E90081E0089589
:102DA00020910C0430910D042617370748F0611567
:102DB000710539F42091E8002E772093E80001C0D6
:102DC000B901FC0120E06115710579F18091F306EC
:102DD0008823F1F18530F1F18091E80083FD3CC05A
:102DE0008091E80082FD2EC08091E80080FFEBCF4B
:102DF0002091F3008091F20090E0922B6115710513
:102E000051F08830910538F421912093F100615000
:102E100071090196F3CF21E0089709F020E0809135
:102E2000E8008E778093E800CECF2111CFCF0AC083
:102E30008091F306882361F0853061F08091E8008D
:102E400083FD0AC08091E80082FFF2CF80E0089500
:102E500082E0089583E0089581E0089508958091C7
:102E6000E20308958093DD037093DF036093DE0334
:102E70008091F3068430F9F48093E9008FEF90910C
:102E8000E800815095FD06C095ED9A95F1F7000098
:102E90008111F5CF8091E80085FF0DC040E050E042
:102EA00063E070E08DED93E00E9406338091E800CE
:102EB0008E778093E8000895BC0184E00E94321769
:102EC0000895BC0183E00E943217089524E0209306
:102ED000E9002FEF3091E800215035FD06C035EDB7
:102EE0003A95F1F700002111F5CF2091E80025FF78
:102EF0000BC040E050E066E070E00E940633809135
:102F0000E8008E778093E8000895CF93DF932091B7
:102F10001401222339F02091DB0327FF03C060E274
:102F200024E002C068E021E02093E9002FEF309117
:102F3000E800215035FD06C035ED3A95F1F7000067
:102F40002111F5CF2091E80025FF1DC0EC018091F3
:102F50001401811105C040E050E068E070E003C05A
:102F600070E040E050E0CE010E9406338091E8001E
:102F70008E778093E80080E2FE01A3EEB3E001903B
:102F80000D928A95E1F7DF91CF910895AAE2B0E022
:102F9000ECECF7E10C946D34E6E0F4E08EE094E0C4
:102FA0002091F10021938E179F07D1F7809107049C
:102FB000833009F463C030F4813071F0823009F459
:102FC0009DC0B4C08A3009F489C08B3009F46EC04A
:102FD000893009F0ABC020C080910604813A09F025
:102FE000A5C08091E800877F8093E80080910A0463
:102FF00090910B04892B21F460E283EE93E003C0EF
:1030000060E080E090E070E00E94D0168091E800DF
:103010008B778093E8008AC080910604813209F0A2
:1030200085C080910A0490910B04009719F00297D3
:1030300009F07CC08091E800877F8093E800809150
:10304000E80082FD05C08091F3068111F8CF6EC0C3
:103050002091F3008091F20090E0922B029731F4DE
:103060008091F100813011F0863021F48091F100DF
:103070008093E2038091E8008B7754C0809106042E
:10308000813A09F053C080910A0490910B04892B76
:1030900009F04CC08091E800877F8093E800809120
:1030A000E80080FFFCCF8091140137C080910604B6
:1030B0008132E1F580910A0490910B04892BB1F5DE
:1030C0008091E800877F8093E8000E947C168091C1
:1030D0000804809314010E94B31D28C08091060447
:1030E000813221F58091E800877F8093E8000E947B
:1030F0007C16809109048093E10318C08091060436
:10310000813AA1F48091E800877F8093E800809164
:10311000E80080FFFCCF8091E1038093F100809173
:10312000E8008E778093E8000E947C168091E8008A
:1031300083FFEBC18091060490910704492F50E072
:103140004A30510508F0E1C1FA01E958FF4F0C94EB
:103150000C35803821F0823809F0D7C108C0809141
:10316000030490910404992389F082600FC0809138
:103170000A048F70873008F0C8C18093E9008091FD
:10318000EB0085FB882780F91092E9009091E80018
:10319000977F9093E8008093F1001092F1007CC13A
:1031A000282F2D7F09F0B1C1882319F0823061F0FA
:1031B000ACC180910804813009F0A7C1933009F0B7
:1031C00080E0809304042EC08091080481112AC0FD
:1031D00080910A048F702FEF280F263008F095C1D8
:1031E0008093E9002091EB0020FF1CC0933021F474
:1031F0008091EB00806214C09091EB0090619093FD
:10320000EB0021E030E0A90102C0440F551F8A9570
:10321000E2F74093EA001092EA008091EB008860A8
:103220008093EB001092E9008091E800877F809303
:10323000E8000E947C1669C1811167C110910804E1
:103240001F778091E3008078812B8093E300809149
:10325000E800877F8093E8000E947C168091E80058
:1032600080FFFCCF8091E30080688093E300111120
:1032700002C082E001C083E08093F30646C180581B
:10328000823008F042C120910804309109042C3D9D
:1032900053E0350779F583E08A838AE289834FB763
:1032A000F894DE01139620E03EE051E2E32FF0E0D7
:1032B00050935700E49120FF03C0E295EF703F5F09
:1032C000EF708E2F90E0EA3010F0C79601C0C096E4
:1032D0008D939D932F5F243149F74FBF8091E80074
:1032E000877F8093E8006AE270E0CE0101960E9439
:1032F000D016C0C080910A0490910B04432F55272B
:1033000043305105B1F068F44130510509F40CC166
:103310004230510509F0F9C08BE590E0E8EEF5E0A8
:1033200057C04132510589F14232510509F43CC080
:10333000ECC0C901992781309105B9F070F0823055
:103340009105D9F0039709F0E0C0E5E5F6E0E491D6
:103350008E2F90E0E5E5F6E038C0E1EAF6E0E49192
:103360008E2F90E0E1EAF6E030C0EBE8F6E0E49181
:103370008E2F90E0EBE8F6E028C0E3E7F6E0E4917A
:103380008E2F90E0E3E7F6E020C08330910508F04F
:10339000BCC0880F991FFC01E35BFE4F0190F081D8
:1033A000E02D89E090E014C08330910508F0ADC0B5
:1033B000FC01EE0FFF1FE95BFE4F0190F081E02D55
:1033C000DC01AC5BBE4F8C9190E0009709F49DC08E
:1033D0002091E800277F2093E80020910C04309191
:1033E0000D042817390708F4C90140E0009789F156
:1033F0002091F306222309F43DC02530D9F1209114
:10340000E80023FD37C02091E80022FD2FC0209165
:10341000E80020FFEBCF4091F3002091F20030E074
:10342000342B009759F02830310540F444914093F3
:10343000F100319601972F5F3F4FF3CF41E02830E5
:10344000310509F040E02091E8002E772093E80054
:10345000CDCF4111CDCF0AC08091F306882351F022
:10346000853041F08091E80083FD04C08091E80040
:1034700082FFF2CF8091E8008B778093E80045C00F
:10348000803809F042C08091E800877F8093E8008F
:10349000809105048093F1008091E8008E77C7CE7B
:1034A000811133C0809108049091090499270297F3
:1034B00064F58091E800877F8093E800109108040C
:1034C000109305040E947C16111106C08091E30040
:1034D00087FD02C081E001C084E08093F30642E0F2
:1034E00061EC81E00E949B1642E261EC84E00E9464
:1034F0009B1642E261EC82E00E949B1642E260EC85
:1035000083E00E949B168091F3068091E80083FF80
:1035100010C08091E800877F8093E8008091EB00E5
:1035200080628093EB0005C082E190E0E3E4F6E086
:103530004FCFAA96E3E00C9489341F920F920FB6F6
:103540000F9211242F933F934F935F936F937F9329
:103550008F939F93AF93BF93CF93DF93EF93FF939B
:10356000C091E900CF708091EC00D82FD17080FD20
:10357000D0E81092E9008091F000877F8093F000FE
:1035800078940E94C6171092E9008091F00088603C
:103590008093F000CD2BCF70C093E900FF91EF91A5
:1035A000DF91CF91BF91AF919F918F917F916F915B
:1035B0005F914F913F912F910F900FBE0F901F90F1
:1035C0001895E8EDF0E080818E7F80831092E20014
:1035D0001092DA001092E100A0EEB0E08C918160D0
:1035E0008C9380818F77808319BCA7EDB0E08C919C
:1035F0008E7F8C9380818F7E80831092E00308956C
:10360000A0E0B0E0E6E0FBE10C946834C8EDD0E067
:1036100088818F7E8883E7EDF0E080818160808300
:1036200084E082BF81E08093E00388818E7F88837D
:1036300002EE10E0F80110821092DA0081EEC82E3E
:10364000D12CF601108288818F77888388818068E9
:10365000888388818F7D888319BC1092F30610922D
:103660000504109204041092030490EEE92EF12C4C
:10367000F70180818B7F808388818160888342E02D
:1036800060E080E00E949B16F60180818E7F80833F
:10369000F801808181608083808188608083F70168
:1036A00080818E7F8083888180618883CDB7DEB7FB
:1036B000E8E00C9484341F920F920FB60F921124FD
:1036C0002F933F934F935F936F937F938F939F932A
:1036D000AF93BF93EF93FF938091E10082FF09C006
:1036E0008091E20082FF05C08091E1008B7F809392
:1036F000E1008091DA0080FF2AC08091D80080FF2D
:1037000026C08091DA008E7F8093DA008091D90004
:1037100080FF18C080E189BD82E189BD09B400FE47
:10372000FDCF81E08093F3068091E00381110FC00B
:103730000E94E11A0E94001B8091E2008460809345
:10374000E20005C019BC1092F3061092E0038091CC
:10375000E10080FF17C08091E20080FF13C08091DC
:10376000E2008E7F8093E2008091E200806180938E
:10377000E2008091D80080628093D80019BC85E077
:103780008093F3068091E10084FF30C08091E200D5
:1037900084FF2CC080E189BD82E189BD09B400FEAF
:1037A000FDCF8091D8008F7D8093D8008091E1007B
:1037B0008F7E8093E1008091E2008F7E8093E20013
:1037C0008091E20081608093E2008091050488236B
:1037D00011F084E007C08091E30087FD02C081E022
:1037E00001C083E08093F3068091F3068091E100AD
:1037F00083FF27C08091E20083FF23C08091E10016
:10380000877F8093E10082E08093F30610920504A5
:103810008091E1008E7F8093E1008091E2008E7FB5
:103820008093E2008091E20080618093E20042E0B8
:1038300060E080E00E949B168091F0008860809399
:10384000F000FF91EF91BF91AF919F918F917F9188
:103850006F915F914F913F912F910F900FBE0F90FD
:103860001F9018952091E4003091E50095E6409175
:10387000EC00842F817040FF23C08091E80080FD20
:103880001DC08091F306882399F0853099F08091CE
:10389000EB0085FD11C04091E4005091E500241734
:1038A000350729F3915011F09A01E1CF84E0089592
:1038B00082E0089583E0089581E0089580E008950E
:1038C0004091E80042FFDDCF089587E797E79093A6
:1038D0000108809300089AE088E10FB6F894A89553
:1038E000809360000FBE90936000FFCF78941F928A
:1038F0000F920FB60F9211248F939F93AF93BF93A4
:103900008091D7039091D803A091D903B091DA03A5
:103910000196A11DB11D8093D7039093D803A09366
:10392000D903B093DA03BF91AF919F918F910F901C
:103930000FBE0F901F9018959C014FB7F89480917F
:10394000D7039091D803A091D903B091DA034FBF68
:10395000821B930B08959B01782F777043E0969517
:1039600087954A95E1F7FC01EE0FFF1F8E0F9F1F11
:10397000F901E80FF91F40E050E080E0219130E0CC
:10398000072E02C0369527950A94E2F72170332757
:10399000042E01C0220F0A94EAF7822B4F5F5F4F7B
:1039A0004330510559F70895962F9770A1E001C053
:1039B000AA0F9A95EAF793E0769567959A95E1F7BD
:1039C000FB01EE0FFF1F6E0F7F1FFA01E60FF71FBF
:1039D00040E050E0682F70E090819B01042E02C00F
:1039E000369527950A94E2F72170219529272A23F5
:1039F000292721934F5F5F4F4330510569F70895A1
:103A000080E090E00E94392B80E090E00E94232B20
:103A10001092E8060E94E528E7E2F4E086E0DF0184
:103A20001D928A95E9F710922104109220041092B9
:103A300022040E94E4250895CF92DF92FF920F9313
:103A40001F93CF93DF936C010091F4068091FA05E8
:103A5000082BC7E0D0E010E0C8010C2E02C09595FD
:103A600087950A94E2F780FD04C02197A8F7F12C0E
:103A700009C0FC2EB6018C2F0E94172E0E946A26C8
:103A8000019799F38F2DDF91CF911F910F91FF90A7
:103A9000DF90CF900895CF93DF93EC010E941C1D1F
:103AA000BE010E94172E0E946A26DF91CF910895D1
:103AB000903FC9F0943070F48A3060F4282F30E0E1
:103AC00061E174E0A901EAE09E9F400D511D1124BF
:103AD000CA0106C09C5F923030F46EE074E090E062
:103AE0000E94AB1C089580E00895282F903FB9F004
:103AF000862F622F943058F42A3048F470E02AE080
:103B0000929F600D711D112441E154E006C09C5F3D
:103B1000923028F470E04EE054E00E94D41C0895E6
:103B20008093F4060E94001D089521E030E001C05A
:103B3000220F8A95EAF720958091F40682230E944D
:103B4000901D089521E030E001C0220F8A95EAF728
:103B50008091F406822B0E94901D08958093FA05AF
:103B60000E94001D08951092E90680911401882397
:103B700031F08091DB0387FF02C08EE101C086E057
:103B8000E0E0F6E0DF011D928A95E9F70E94001D52
:103B90000895882321F00E948D280E94E528089529
:103BA000882339F09091E806892B8093E8060E94DB
:103BB000E5280895882321F00E9494280E94E52892
:103BC0000895882339F09091E906892B8093E906BE
:103BD0000E94E5280895882391F19CEF980F913A6F
:103BE00030F4682F8EEF95E00E94C62A0DC090E257
:103BF000980F983060F4877091E001C0990F8A9512
:103C0000EAF7892F0E9494280E94E52808959BE5F1
:103C1000980F933028F480E090E00E94392B0895AB
:103C200098E5980F973128F480E090E00E94232BCC
:103C30000895803F20F00E945B230E94E4250895B0
:103C4000CF93882309F471C0C82F8CEF8C0F813A71
:103C5000C0F5809114018823E1F08091DB0387FF98
:103C600018C0EC2FE695E695E695F0E0E250FA4FA5
:103C70008281282F30E04C2F477081E090E002C015
:103C8000880F991F4A95E2F782239323892B61F4C9
:103C900012C0E0E0F6E086E096E02191C21721F044
:103CA0008E179F07D1F707C06C2F8EEF95E00E940B
:103CB000C62A0E94E5286C2F8EEF95E00E94EE2A1E
:103CC00010C080E28C0F883078F4C77081E090E0FB
:103CD00001C0880FCA95EAF79091E906892B809375
:103CE000E9060E94E52821C0EBE5EC0FE33040F443
:103CF000F0E0ED5AFE4F808190E00E94392B15C014
:103D0000E8E5EC0FE73150F4F0E0EE0FFF1FEA5A60
:103D1000FE4F808191810E94232B07C0C03F28F075
:103D20008C2F0E9422240E94E425CF9108951F9396
:103D3000CF93DF93182F893319F0C0E0D0E002C091
:103D4000C0E5D0E0812F0E94201E209741F08FE92E
:103D50009FE00197F1F700C000002197F6CF812F77
:103D60000E94EB1DDF91CF911F9108950F931F9338
:103D7000CF938C01FC0143815481618180810E9439
:103D8000812CC82F811125C0F80186819781009769
:103D900019F00E946A2605C0F801808191810E9475
:103DA0004B1D92959F70963079F010F4925001C09F
:103DB0009A50923088F4803F71F018F4883E60F495
:103DC0000AC0843F49F407C0883E28F0813F21F4AF
:103DD00002C0C0E001C0C1E08C2FCF911F910F91B4
:103DE0000895A5E1B0E0E7EFFEE10C9460348C01AA
:103DF00085E0F801DE01519601900D928A95E1F778
:103E0000F801E2804AE8A42E45E0B42E80908D05AA
:103E100090908E05A40160918B0580918A050E9487
:103E2000812C682E811190C1F801C380D480F0905C
:103E30008C05C601881999094C01FF2009F41CC1A1
:103E40004080518060E0C5010E94702FB5010E9442
:103E5000CA2270908F058816990608F0CAC0409152
:103E60008D0550918E05B0908A05A0908B05872D09
:103E7000807F6A2D09F05DC08B2D0E94812C8111FD
:103E800021C0F80181818A111DC080818B111AC067
:103E900020919005309191058681978128173907E7
:103EA00089F4FE2CE1100EC0872D8F708061809305
:103EB0008F058AE895E00E945D0E80918F05F801DC
:103EC00085837FC1A601652D842D0E94812C8111DF
:103ED00003C081E08E2502C080E090E0F82FF170F1
:103EE000FF2E80FF1CC08091D30520919205821780
:103EF00009F445C190E0FC0133E0EE0FFF1F3A9555
:103F0000E1F7ED56FA4F3181531206C0308143126A
:103F100003C03281E31203C001968770E8CFFE2C04
:103F2000EE2009F44EC180918F05816080938F054A
:103F30006CC08B2D0E94812C811114C0F8018181ED
:103F40008A1110C080818B110DC020919005309195
:103F50009105868197812817390721F4E11002C065
:103F60007582D2C0C8010E94B61E8823E1F1EE20FE
:103F7000D1F120918F05822F82958F7090E002976A
:103F8000A4F080918A0590918B059A8789871B867A
:103F9000DD86CC862E878091900590919105988B37
:103FA0008F87CE0109960E945D0E88E0F801AAE88D
:103FB000B5E001900D928A95E1F70E941F2A16C084
:103FC00090908A0580908B0540918D0550918E05CB
:103FD000682D892D0E94812C8823C9F0C8010E9478
:103FE000B61E81112BC0C8010E945D0EFF24F39400
:103FF000E8C0872D807F21F78AE895E00E945D0E5A
:1040000088E0F50111928A95E9F7F12CDAC0F80100
:1040100081818811E3CF80818911E0CF20919005C3
:10402000309191058681978128173907B9F6E110FB
:10403000D5CF7582C8010E945D0E80C0EE2099F236
:1040400020918F05822F82958F7090E002970CF45B
:10405000ACCF80918A0590918B059A8389831B82CE
:10406000DD82CC822E838091900590919105988776
:104070008F83CE01019697CF60E08AE895E00E9499
:10408000702F6AE875E00E94CA228816990608F027
:1040900055C0FE2CEE2009F4A6CFE0908A05D09002
:1040A0008B0540918D0550918E056D2D8E2D0E94B2
:1040B000812C811135C0F80181818D1131C0808141
:1040C0008E112EC0209190053091910586819781A7
:1040D0002817390729F580918F0580FD18C0829532
:1040E0008F70482F50E04115510589F020918F05C0
:1040F00025834F30510541F08F5F982F9295907F27
:10410000822F8F70892B8583C8010E945D0E88E005
:10411000F801AAE8B5E001900D928A95E1F751C047
:10412000C8010E94B61E811140CF80918F05816029
:1041300080938F05C8010E945D0E43C088E0F501A1
:1041400011928A95E9F73DC0EE2009F44CCFC801E1
:104150000E94B61EF82E882309F445CF88E0F801A6
:10416000AAE8B5E001900D928A95E1F780918A0561
:1041700090918B050E944B1D0E941F2A22C0498AE4
:104180005A8A89899A890E944B1D292F22952F705E
:10419000223028F49F7039F0811105C00BC0243003
:1041A00028F49F7049F4805E883020F0C8010E9496
:1041B0005D0E6F2CF62C05C0F8019581907F99F764
:1041C000F9CF8F2D6596E0E10C947C34A0E1B0E04E
:1041D000ECEEF0E20C946A3429873A874B875C87CF
:1041E0006D877E878F87988BCE0109960E94F11E7E
:1041F00081114AC088E0FE013996DE0111960190D6
:104200000D928A95E1F7E984FA840C851D85A80151
:104210006F2D8E2D0E94812C811136C0A0919205A8
:10422000B0E0CD010196877099272091D30530E049
:104230008217930781F1E982FA821D830C8393E050
:10424000AA0FBB1F9A95E1F7AD56BA4F98E0FE0151
:10425000319601900D929A95E1F7809392050E9414
:10426000DB2812C028E0829FC00111248D569A4F8E
:104270000E94F11E8823E1F08091D30590E0019621
:10428000877099278093D3058091D30590919205EB
:104290008913E8CF0DC00E94B31D109292051092B1
:1042A000D305EAE8F5E088E0DF011D928A95E9F799
:1042B0006096E6E00C9486340F931F93CF93DF93C0
:1042C000843010F5611120C094E0899FE001112431
:1042D000C959DE4F411103C082E090E002C080E086
:1042E00090E0632F022F142F8C0F9D1F0E94BC346F
:1042F000111103C083E090E002C081E090E0602FE4
:104300008C0F9D1F0E94BC34DF91CF911F910F91A4
:104310000895FF920F931F93CF93DF93843030F56E
:10432000611124C024E0829F8001112409591E4F8D
:10433000411103C082E090E002C080E090E0F42EE2
:10434000800F911F0E94AE3490E0D82FCC27F1103F
:1043500003C083E090E002C081E090E0800F911FF5
:104360000E94AE349E01282BC90102C080E090E07B
:10437000CDB7DEB7E5E00C9487341F93CF93DF937E
:10438000962F8430E8F46430D8F44A30C8F4632FB0
:10439000122FC42FD0E0CC0FDD1F24E1929FC00D5F
:1043A000D11D112490E5899FC00DD11D1124CE018E
:1043B00087960E94BC34612FCE0188960E94BC343F
:1043C000DF91CF911F9108950F931F93CF93DF93A8
:1043D000843008F56430F8F44A30E8F4C42FD0E0B3
:1043E000CC0FDD1F24E1629FC00DD11D112430E5EB
:1043F000839FC00DD11D1124CE0187960E94AE343B
:1044000090E0182F0027CE0188960E94AE349801C4
:10441000282BC90102C080E090E0DF91CF911F916D
:104420000F910895AAE0B0E0E8E1F2E20C94643460
:1044300002E115E080E0C82E85E0D82E97E1E92E54
:1044400092E0F92E2FE0922E3FEFA32E34E0B32E10
:1044500088248394F601019311936F014AE050E0A0
:10446000B701CE0101960E949E34F801892D119268
:104470008A95E9F789819A81F801918380838F81F8
:1044800082838D81838388858483898585838B81DD
:104490009C819783868310868A8587FF03C0168652
:1044A000158603C0F801B686A58680FF02C0F80114
:1044B000808681FF04C0F80190859260908782FF1A
:1044C00004C0F80190859460908783FF04C0F801D0
:1044D00090859860908784FF04C0F8019085906172
:1044E000908785FF04C0F801808580628087015F26
:1044F0001F4FFAE0EF0EF11C87E6E81682E0F8069F
:1045000009F0A8CF2A96ECE00C948034AAE0B0E041
:10451000ECE8F2E20C94683480E5EFEAF4E0DF01C5
:104520001D928A95E9F788E3EEE8F6E0DF011D9237
:104530008A95E9F78FEAC82E84E0D82E7F0107EC30
:1045400011E0F701D182C0824AE050E0B801CE010B
:1045500001960E949E3488E0FE013196D6010190BA
:104560000D928A95E1F789859A85D70113969C93D8
:104570008E931297BAE0CB0ED11CE7E0EE0EF11C41
:10458000065F1F4F0731F2E01F07D9F62A96E8E0D1
:104590000C948434AAE0B0E0E0EDF2E20C946E34C6
:1045A0009C0137552F3F310509F050F4BE016F5F74
:1045B0007F4F0E94E92E892B19F489859A8502C0C4
:1045C00088EC90E02A96E2E00C948A34EFE3F4E081
:1045D00080E090E063E475E24AE655E224EC34E2E0
:1045E00077836683518740873387228795878487BF
:1045F00001963E968830910599F7089581152CE52E
:10460000920759F480911E0690911F06892B19F488
:1046100080E090E0089580E09CE5089586E290E0D7
:104620000E94BC340895CF93C82F811102C06FEF50
:1046300001C063E083E290E00E94BC34C11102C07B
:104640006FEF01C06EE284E290E00E94BC34C111C1
:1046500002C06FEF01C06DEA85E290E00E94BC34B9
:10466000CF91089580E00E94132360E070E0CB01B9
:104670000E940E230E94422E0E94072E81E00E947B
:104680001323089583E290E00E94AE34833081F4D6
:1046900084E290E00E94AE348E3251F485E290E0E4
:1046A0000E94AE3491E08D3A09F090E0892F01C06C
:1046B00080E081700895803F39F480912A0487FF5B
:1046C0006AC010922A0467C0813F29F480912A04AD
:1046D0001816BCF360C090912904823F29F497FF1B
:1046E0005AC01092290457C0833F19F41916CCF30D
:1046F00052C090912B04893F31F419160CF04BC035
:1047000010922B0448C08A3F19F497FF44C0F8CF99
:104710008B3F39F480912C0487FF3DC010922C040C
:104720003AC08C3F29F480912C041816BCF333C096
:10473000843F21F4809128048E7F17C0853F21F4A7
:10474000809128048D7F11C0863F21F48091280438
:104750008B7F0BC0873F21F480912804877F05C0A1
:10476000883F31F4809128048F7E8093280413C001
:104770008D3F21F4809122048E7F0BC08E3F21F467
:10478000809122048D7F05C08F3F29F480912204FF
:104790008B7F8093220480912904811106C080912F
:1047A0002A04811102C01092210480912B048111EE
:1047B00006C080912C04811102C01092200408953B
:1047C0008091220480FD16C081FD16C082FD18C0B4
:1047D00080912004882391F0883290F428E0829F11
:1047E000C001112468E270E00E94F834862F672B24
:1047F00029F007C082E0089584E0089581E00895DB
:1048000088E008958091220480FD14C081FD14C0C9
:1048100082FD16C080912104882381F08E3180F4BE
:1048200020E5829FC00111246EE170E00E94F834FF
:10483000862F089584E1089588E2089588E0089518
:1048400080E50895803F21F40E940224819504C0F0
:10485000813F29F40E94022480932A040895823F14
:1048600021F40E940224819504C0833F29F40E9410
:104870000224809329040895893F19F40E94E023BB
:1048800005C08A3F31F40E94E023819580932B0478
:1048900008958B3F21F40E94E023819504C08C3F52
:1048A00029F40E94E02380932C040895843F21F48E
:1048B00080912804816017C0853F21F480912804ED
:1048C000826011C0863F21F48091280484600BC06F
:1048D000873F21F480912804886005C0883F31F427
:1048E0008091280480618093280408958D3F21F4ED
:1048F0008091220481600BC08E3F21F480912204BC
:10490000826005C08F3F29F48091220484608093E7
:1049100022040895A5E0B0E0E0E9F4E20C946C34E0
:104920008C019093210680932006011580E21807E0
:10493000B8F4802F0E94EB1DC801805E9109089792
:1049400018F00115110531F4C8010E94B62F0E941C
:10495000DA1D16C0C8010E94B62F0E94C91D10C0E2
:1049600080EF89838A831B820E94912A8160782F3D
:104970009D838C8349815A816B818D810E94FD2F9B
:104980002596E4E00C9488340F931F93CF93DF9324
:104990008C01EB0165E374E08C2F0E94E92E892BDA
:1049A000E1F5DD27C35DDB4F8881F80112821882B3
:1049B000833079F048F4813041F1823071F5809193
:1049C00037049091380409C0843051F08530E9F003
:1049D00024C08091390490913A040097B1F01BC033
:1049E00080913B0490913C040097A9F420913504F8
:1049F00030913604809137049091380421153105A7
:104A000041F0009741F4C90106C0809135049091AE
:104A10003604009711F00E948A24DF91CF911F91F4
:104A20000F910895A5E0B0E0E8E1F5E20C946E3452
:104A30009093210680932006811520E2920718F4B6
:104A40000E94E32F11C080EF89838A8381E08B83EA
:104A50000E94912A8160782F9D838C8349815A819D
:104A60006B818D810E94FD2F2596E2E00C948A34A3
:104A7000CF93DF93EC010E941225CE010E948A247D
:104A8000DF91CF9108950F931F93CF93DF938C0104
:104A9000862F65E374E00E94E92E892BB1F4C09162
:104AA0003504D0913604209781F0F801828183305B
:104AB00039F4CE010E943825CE010E94382502C06B
:104AC000843018F0CE010E943825DF91CF911F91DC
:104AD0000F9108950F931F93CF93DF938C01EB01F8
:104AE00065E374E08C2F0E94E92E892B09F067C0E2
:104AF000DD27F8018281813039F4958192FD13C060
:104B000090FF11C082E00FC0823041F4F80185812E
:104B100082FD06C080FD06C083E005C086E003C0BC
:104B200085E001C084E0C35DDB4F88838330B1F052
:104B300028F4813071F0823031F041C08430A9F026
:104B4000853079F13CC0809137049091380400970A
:104B5000A1F5809135049091360420C080913904EC
:104B600090913A040097E9F028C080913B0490911D
:104B70003C04009711F5809135049091360400971C
:104B800049F00E94382580913704909138040097AD
:104B900081F013C08091370490913804009779F028
:104BA0000CC08091350490913604009741F00E942A
:104BB000382580913504909136040E941225DF91AA
:104BC000CF911F910F9108950E94912A209129045D
:104BD000211104C020912A04222321F0909326045D
:104BE0008093250420912B04211104C020912C04D2
:104BF000222321F09093240480932304E091EE0675
:104C0000F091EF06309749F082E08093270404800A
:104C1000F581E02D87E294E00995089580E00895FC
:104C20009091DB0392FF0DC0282F2871283019F4D2
:104C3000877F846006C0282F2471243011F48B7F75
:104C4000886093FF0DC0282F2871283119F4877EC2
:104C5000846106C0282F2471243111F48B7E886171
:104C60002091DC0320FF0DC0382F3871383019F443
:104C7000877F816006C0382F3171313011F48E7F0B
:104C8000886021FF0DC0282F2871283119F4877EF4
:104C9000816106C0282F2171213111F48E7E886137
:104CA00094FD877E0895F894E82FE295EF70F0E088
:104CB00031A1282F2F7081E090E001C0880F2A9544
:104CC000EAF7982F9095932391A392A1892B82A321
:104CD00078940895CF93DF938238910569F1B0F409
:104CE0008133910509F477C048F48932910509F4BC
:104CF00069C08A32910509F473C092C08533910569
:104D000009F45BC089339105B9F08AC0833E9105EF
:104D100091F138F4803E9105D1F0823E910531F158
:104D20007FC0863E9105D9F1873E9105E9F1843E29
:104D3000910509F075C028C02091DB0320FD5BC000
:104D400021FD59C02091DC0323FD61C069C0809121
:104D5000DB0380FD4AC08091DC0380FF4CC0809162
:104D6000DB0384FD4EC183EE90E04DC18091DB03F7
:104D700082FF3EC0F4CF8091DB0382FD39C0809179
:104D8000DC0380FD38C0EBCF8091DC0381FF39C0AC
:104D90008091DB0384FD35C187EE90E034C18091C2
:104DA000DB0383FF2BC0F4CF8091DB0383FD26C0A0
:104DB0008091DC0381FD25C0EBCF8091DB0385FD75
:104DC00026C022C08091DB0385FD1EC08091DC03DC
:104DD00083FF1DC00AC08091DB0386FD1BC01DC080
:104DE0008091DB0386FD19C015C089E390E00BC1FB
:104DF00082EE90E008C180EE90E005C186EE90E082
:104E000002C184EE90E0FFC085E390E0FCC089E23F
:104E100090E0F9C08AE290E0F6C081E390E0F3C050
:104E2000811531E5930708F061C0811520E59207EF
:104E3000B0F0482F4F704695469520E2429FA00162
:104E40001124982F937021E030E002C0220F331F0D
:104E50009A95E2F7C9019D68842B952BD4C0883EB2
:104E6000910568F5803E910508F0CDC0883A91051E
:104E7000B8F4853A910548F0855AE82FF0E0ED5AEC
:104E8000FE4F808190E09064BEC08130910509F4AE
:104E9000B5C008F4B6C08430910508F4B2C0B3C000
:104EA0008F3B910508F0ADC0885AE82FF0E0EE0F77
:104EB000FF1FEA5AFE4F808191819464A4C081153E
:104EC00030E2930758F4811521E0920708F09BC067
:104ED000803F910508F495C0906595C0811530E438
:104EE000930708F48EC09F70906A8DC0811525E5E8
:104EF000920708F042C0811534E5930728F0982FF7
:104F00008827846F906A7FC0811523E59207B0F0EF
:104F10009C012370332741E050E002C0440F551F2D
:104F20002A95E2F7282F2695269580E2289F900162
:104F30001124CA01822B932B9A6865C0811532E532
:104F4000930728F4982F8827816F906A5CC09C0192
:104F50002370332741E050E002C0440F551F2A95CB
:104F6000E2F7282F2695269580E2289F90011124AC
:104F7000CA01822B932B9C6846C0EC01C11589E5C0
:104F8000D807B0F4C11528E5D20728F09C2F882750
:104F9000806F906A38C0C11536E5D30790F58C2F25
:104FA0000E9410268F7190E0982F882790622BC066
:104FB000C1158AE5D80790F48C2F8F700E941026B7
:104FC00094E0D695C7959A95E1F7CF70D0E0DC2FA5
:104FD000CC27D0699E01282BC90115C0CE0190565F
:104FE0008115904270F48D2F8F710E941026282F0A
:104FF0002F71CE0199279062922B05C081E090E03D
:1050000002C080E090E0DF91CF910895CF9384E0DB
:1050100090E00E94AE34C82F82E290E00E94AE344D
:105020002C2F30E0A901582BCA01CF91089568EECA
:105030007EEF80E090E00E94DA3460E082E090E071
:105040000E94BC3460E083E090E00E94BC34109287
:10505000FA0560E084E090E00E94BC3464E082E203
:1050600090E00E94BC3460E085E090E00E94BC3497
:1050700060E086E090E00E94BC346FEF87E090E053
:105080000E94BC3440E050E0BA0188E090E00E9409
:10509000CE3460E08DE090E00E94BC3440E050E00F
:1050A000BA0188E190E00E94CE3460E087E190E0B0
:1050B0000E94BC3440E050E0BA018CE190E00E94D4
:1050C000CE3460E070E080E290E00E94DA3440E0AC
:1050D00050E0BA0188E190E00E94CE3480E00E9466
:1050E00013230E94322340E050E0BA018FE090E0A9
:1050F0000E94CE3440E050E0BA0183E190E00E948B
:10510000CE3408958091F905882331F01092F90585
:105110001092F8051092F705089580959091E80691
:1051200089238093E806089580959091E906892364
:105130008093E90608951092D6051092D505109235
:10514000D40508952091D605809582238093D605B5
:10515000982F977099F430E0482F082E000C550BCB
:105160002417350759F09091DC0392FF07C085950D
:10517000859585950E94951D0E949B280895CF9343
:10518000C091DC03C2FB992790F9981791F080FB3E
:10519000C2F9C093DC036091DB0384E090E00E94DD
:1051A000BC346C2F82E290E00E94BC3482E00E940A
:1051B000A228CF9108958091D305909192058917E7
:1051C00019F08F5F8770FBCF0895CF939091E90618
:1051D0008091E806892B8093FE058091F90588234C
:1051E00061F10E94912A2091F7053091F805821B08
:1051F000930B8838934110F00E9482289091FE050D
:105200008091F905892B8093FE05809114018823F4
:1052100031F08091DB0387FF02C08EE101C086E0A0
:10522000E0E0F6E090E0815028F021912223D9F3CC
:105230009F5FF9CF91110E948228C091DE06C09530
:105240008091FE05C8238091DF06C82BC093FE0520
:1052500040E250E067ED75E08EEF95E00E94193571
:10526000892B11F180E2EEEFF5E0A7EDB5E00190BA
:105270000D928A95E1F7E091EE06F091EF063097F6
:1052800099F080911401882349F08091DB0387FF16
:1052900005C0C093FF0586E08093FE050280F38180
:1052A000E02D8EEF95E00995CF9108959091DC0364
:1052B00092FF10C098E0899F90011124262B209323
:1052C000D6050E94A21D0E94912A9093D505809335
:1052D000D40508950E94A21D0895A8E0B0E0E3E778
:1052E000F9E20C946234AE014F5F5F4F7A0188E0BF
:1052F000FA0111928A95E9F70EE111E06A0192E252
:10530000692E91E0792E88248394912CF801808174
:105310008F3F09F447C0F894E82FE295EF70F0E072
:1053200021A18F70A40102C0440F551F8A95E2F796
:10533000CA01922F982B91A392A18095892382A3D1
:10534000789400C0E2E2F1E021E030E0A12CB12C41
:1053500041914F3F89F0A42FA295AF70B0E0909695
:105360008C9190E04F7002C0959587954A95E2F731
:1053700080FD02C0C90102C080E090E0A82AB92ADD
:10538000220F331F51E0EC32F50711F7F80180814D
:105390008F3F11F00E945326F0EAFA95F1F7F601DB
:1053A000B182A0820F5F1F4FF2E0CF0ED11C6016BA
:1053B000710609F0ABCF48E050E0B70186E891E014
:1053C0000E941935892B89F088E0F701A6E8B1E041
:1053D00001900D928A95E1F781E08093FD050E948E
:1053E000912A9093FC058093FB058091FD05811126
:1053F00002C080E020C08091FB059091FC050E94D6
:105400009C1C0597B0F348E050E066E871E08BEC37
:1054100093E00E941935892B59F088E0E6E8F1E025
:10542000ABECB3E001900D928A95E1F781E001C009
:1054300080E01092FD052896EEE00C947E34A0E00A
:10544000B0E0E5E2FAE20C94683480918F05829531
:105450008F7009F055C080918C05882309F450C0E5
:10546000C091D30580919205C81709F449C0F09006
:105470008A05E0908B05C0908D05D0908E05A60121
:105480006E2D8F2D0E94812CD0E0811136C08E01AF
:1054900083E0000F111F8A95E1F7F801ED56FA4FEE
:1054A00081818E112AC080818F1127C08281811154
:1054B00024C0E380F480EC18FD0860E08AE895E001
:1054C0000E94702F6AE875E00E94CA22E816F90669
:1054D000A0F480918F058F70806180938F05F80113
:1054E000E856FA4F80818F70806180838AE895E06A
:1054F0000E945D0E0E94DB2803C02196C770B2CFC8
:10550000CDB7DEB7E8E00C9484342FB7F8946091FF
:10551000D7037091D8038091D9039091DA032FBFFC
:1055200008952FB7F8948091D7039091D803A09154
:10553000D903B091DA032FBF08951F920F920FB6CF
:105540000F9211248F939F93AF93BF938091F20694
:10555000811113C08091D7039091D803A091D903F2
:10556000B091DA034196A11DB11D8093D7039093AA
:10557000D803A093D903B093DA03BF91AF919F9161
:105580008F910F900FBE0F901F90189520911401CE
:105590002223C9F02091DB0327FF15C0262F269573
:1055A000269526952E31C8F4FC01E20FF11D677097
:1055B00081E090E001C0880F6A95EAF780959281BA
:1055C000892382830895FC0106962281621301C01B
:1055D00012823196E817F907C1F708952091140156
:1055E0002223C1F02091DB0327FF14C0262F26952C
:1055F000269526952E3130F5FC01E20FF11D6770DE
:1056000081E090E001C0880F6A95EAF79281892BCA
:1056100082830895FC0132962FEF30E041916417A8
:1056200089F02F3F19F4411101C0232F3F5F36301D
:10563000A9F72F3F39F0FC01E20FF11D27FDFA9584
:105640006283089508952091F0063091F10628179D
:10565000390771F09093F1068093F006E091EE0621
:10566000F091EF06309721F00084F185E02D099547
:1056700008952091EC063091ED062817390771F056
:105680009093ED068093EC06E091EE06F091EF0624
:10569000309721F00680F781E02D09950895E0917B
:1056A000EE06F091EF06309729F00190F081E02DA1
:1056B0000995089580E00895CF93DF93EC01EA8582
:1056C000FB85309719F06C857D8509958B810E944B
:1056D0008D288C810E9494280E94E52886E0FE0196
:1056E00011928A95E9F7DF91CF910895CF93DF93D7
:1056F000EC018D8181FD18C082608D839091E80658
:105700008B81892B8093E8069091E9068C81892B07
:105710008093E9060E94E528E885F985309721F015
:105720006C857D85CE0109951092EB061092EA06F4
:105730008D8180FD03C0CE010E945C2BDF91CF9153
:105740000895CF93DF93EC014091DA065091DB0688
:105750006091DC067091DD062FB7F8948091D70335
:105760009091D803A091D903B091DA032FBF841B85
:10577000950BA60BB70B843F9140A105B105A8F48A
:105780008091DA069091DB06A091DC06B091DD06EF
:105790008093D6069093D706A093D806B093D906E7
:1057A00084EF91E0A0E0B0E00EC00E94852A6093F3
:1057B000D6067093D7068093D8069093D90682E3D5
:1057C00090E0A0E0B0E08093D2069093D306A0933F
:1057D000D406B093D506D093E206C093E106DF91DC
:1057E000CF910895FF920F931F93CF93DF93009172
:1057F000E3061091E4060115110509F45CC010924E
:10580000E2061092E1061092DE061092DF06D80141
:1058100016966D917C9117979B013A9521153F4102
:1058200008F4707EC62FD1E0611101C0D0E0F82EDF
:10583000D8011996ED91FC911A97309739F01B9683
:105840006D917C911C9780E00995D823DD2379F038
:105850008CEF8C0F813A30F46C2F8EEF95E00E9424
:10586000C62A05C00E94E5288C2F0E94EB1DE091FE
:10587000E306F091E40640815181FF2071F08085BC
:1058800084FD0BC08091E006882339F091E09A01F5
:1058900021503109203B3D4508F090E090FF03C0C6
:1058A000CA010E94A12B0E94E5281092E4061092E2
:1058B000E3061092E006C801CDB7DEB7E5E00C9430
:1058C0008734FC0184818623C1F492819923B9F045
:1058D0008085692383FF04C081E0611111C00DC080
:1058E000892F8F7092959F70982B862F8F7062955D
:1058F0006F70682B81E0961719F080E0089581E0C1
:105900000895452B41F06F3F41F491E08F3F09F03E
:1059100090E0892F03C081E001C080E0817008958C
:10592000BC014091CE068091CF06942F981729F1A3
:10593000292F30E0F901EE0FFF1FEA53F94F0190D4
:10594000F081E02DE617F70799F487E0869FF001D4
:10595000879FF00D1124E257F94F81E0848394135F
:105960000CC02F5F3F4F237033272093CE0608953E
:105970002F5F3F4F922F9370D9CF0895EF92FF92F0
:105980000F931F93CF93DF9380912D06882309F403
:1059900040C000912C068CE0F82E80912D0608174F
:1059A000A0F5EE24E394E00EE0922C0610E0F09EC9
:1059B000E001F19ED00D1124C25DD94F4B815C8175
:1059C000698188810E94812C81111DC08E819F81F7
:1059D000892B21F488859985019651F42881398194
:1059E0004A815B816C817D818E819F810E94E6204E
:1059F000F09EF001F19EF00D1124E25DF94F14824A
:105A000013821092E8060E2DC8CF10922D06109228
:105A10002C06CDB7DEB7E6E00C94863410922B0648
:105A200010922A06EEE8F6E08581811102C0148208
:105A30001682379686E0E63CF807B1F70895109293
:105A4000D1061092D006109215018091CF06809356
:105A5000CE060E940E2D0E94BE2C0895A0E0B0E05C
:105A6000E4E3FDE20C945F34C091CE0697E0892E0A
:105A700001E010E02CE0322E3EEF932E44244394BC
:105A80008091CF06C81709F479C0D0E0FE01EE0F6F
:105A9000FF1FEA53F94F80819181889ED001899E32
:105AA000B00D1124A257B94F14962C9114972111BF
:105AB00062C050902D06EEE2F6E020E030E0712C5E
:105AC0005D01251508F055C0E284F384D501CD9021
:105AD000DC906FEF7FEF612C462D50E0DA01AA0FCA
